:020000040000fa
:08000000060c040000000000e2
:020000040000fa
:100008008a16000062160000681600007e160000be
:10001800841600008a1600008a1600008a1600005e
:100028008a1600008a1600008a160000c013000015
:100038008a1600008a1600008a1600008c0e00003e
:10004800da1000008a1600008a160000fc0f000073
:10005800741000008a1600008a1600008a16000034
:100068008a1600008a1600008a1600008a16000008
:100078008a1600008a1600008a1600008a160000f8
:100088008a1600008a1600008a160000d60c0000a6
:100098008a1600008a160000ec1200009c1200006c
:1000a8008a1600008a1600008a1600008a160000c8
:1000b8008a1600008a1600008a1600008a160000b8
:1000c8008a1600008a1600008a1600008a160000a8
:1000d8008a1600008a1600008a1600008a16000098
:1000e8008a1600008a1600008a1600008a16000088
:1000f8008a1600008a1600008a1600008a16000078
:100108008a1600008a1600008a1600008a16000067
:100118008a1600008a1600008a1600008a16000057
:100128008a1600008a1600008a1600008a16000047
:100138008a1600008a1600008a1600008a16000037
:100148008a1600008a1600008a1600008a16000027
:100158008a1600008a1600008a1600008a16000017
:100168008a1600008a160000721100004212000070
:100178008a1600008a1600008a1600008a160000f7
:100188008a1600008a1600008a1600008a160000e7
:100198008a1600008a1600008a1600008a160000d7
:1001a8008a1600008a1600008a1600008a160000c7
:1001b8008a1600008a1600008a1600008a160000b7
:1001c8008a1600008a1600008a1600008a160000a7
:1001d8008a1600008a1600008a1600008a16000097
:1001e8008a1600008a1600008a1600008a16000087
:0801f8008a1600008a160000bf
:020000040000fa
:100208008a16000062160000681600007e160000bc
:10021800841600008a1600008a1600008a1600005c
:100228008a1600008a1600008a160000c013000013
:100238008a1600008a1600008a1600008c0e00003c
:10024800da1000008a1600008a160000fc0f000071
:10025800741000008a1600008a1600008a16000032
:100268008a1600008a1600008a1600008a16000006
:100278008a1600008a1600008a1600008a160000f6
:100288008a1600008a1600008a160000d60c0000a4
:100298008a1600008a160000ec1200009c1200006a
:1002a8008a1600008a1600008a1600008a160000c6
:1002b8008a1600008a1600008a1600008a160000b6
:1002c8008a1600008a1600008a1600008a160000a6
:1002d8008a1600008a1600008a1600008a16000096
:1002e8008a1600008a1600008a1600008a16000086
:1002f8008a1600008a1600008a1600008a16000076
:100308008a1600008a1600008a1600008a16000065
:100318008a1600008a1600008a1600008a16000055
:100328008a1600008a1600008a1600008a16000045
:100338008a1600008a1600008a1600008a16000035
:100348008a1600008a1600008a1600008a16000025
:100358008a1600008a1600008a1600008a16000015
:100368008a1600008a16000072110000421200006e
:100378008a1600008a1600008a1600008a160000f5
:100388008a1600008a1600008a1600008a160000e5
:100398008a1600008a1600008a1600008a160000d5
:1003a8008a1600008a1600008a1600008a160000c5
:1003b8008a1600008a1600008a1600008a160000b5
:1003c8008a1600008a1600008a1600008a160000a5
:1003d8008a1600008a1600008a1600008a16000095
:1003e8008a1600008a1600008a1600008a16000085
:0803f8008a1600008a160000bd
:020000040000fa
:101800000810000001490000000100000fd3200073
:101810000e7f24000e018800000000000000200060
:101820000000e000020032000001200020028800d9
:1018300014000700390507000000e00003003a002b
:10184000e0322300010020000200370000002000e9
:1018500001002000810f7000010032001400070019
:10186000000020000000e000020032000000020042
:1018700000000000f8290200000000000040da002b
:101880000000fe004440a900200520000000e00008
:101890000300320000002000a00188004440a8009e
:1018a000000006008a1f78008b1f780000000600e9
:1018b00091018800800478000000eb001a003700d6
:1018c000e284440032a0b4009905ba00e2844400e6
:1018d00032a0b4009906ba00e284440032a0b400f9
:1018e0000006eb00476fde00fd07b200636ce1000d
:1018f00003003a00ebff07000000eb000a0037008e
:10190000606ce10004003a00005deb008b05e9002b
:10191000fdff3e00040037006168e1000100320075
:101920000086eb000b00070019c7ba001905ba00c2
:101930000e04e00003003a000a00e000e0ff3a0075
:1019400000000600fe07b2009e0188008a047800ad
:10195000f5ff3700395dba008b05e9000c00320055
:10196000295dba008b05e900080032000c00e00098
:1019700003003a00e284440032a0b400f5ff3700cf
:1019800019ddba008b05e900faff3a008904e80086
:10199000e184440032a0b40000000600e8310400f5
:1019a0000000000076310400000000003600f8005e
:1019b000809fbe00829fbe00849fbe00869fbe00a7
:1019c0000200fa0000f42100000f78009066800009
:1019d000610060000000e0001700320070668000c7
:1019e0000000e800706688007166800080668000f4
:1019f000808f5000100036000000eb0070668800f9
:101a0000601680006800600000f0a7000000ea0097
:101a10000000e9004f00de00004078000080fb007d
:101a2000610060004300dd00611680000130a1000c
:101a30000100700060168800d066800061006000c0
:101a40000000e00018003200b06680000000e800ee
:101a5000b0668800b1668000c0668000808f50004c
:101a6000110036000000eb00b066880061168000af
:101a7000000220000080600000f0a7000000ea00e3
:101a80000000e9004f00de00004078000080fb000d
:101a9000610060004500dd00611680000150a1007a
:101aa000010070006016880010678000610060000f
:101ab0000000e00017003200f06680000000e8003f
:101ac000f0668800f166800000678000808f50001b
:101ad000100036000000eb00f06688006016800001
:101ae0007000600000f0a7000000ea000000e900bc
:101af0004f00de00004078000080fb0061006000c5
:101b00004400dd00611680000140a100010070006a
:101b10006016880040678000610060000000e000ff
:101b20004700320040ce2000104078000080fb00cb
:101b30006a00b90000007800000f7800306780006c
:101b40000000e80030678800306780009e0f50007a
:101b50002f003e00615b800090052000808f5000c8
:101b60000300360050002000e0110700220037007b
:101b7000615b8000f0042000808f5000030036007d
:101b800040002000d91107001b003700615b800076
:101b900050042000808f50000300360030002000e9
:101ba000d211070014003700615b8000b0032000f1
:101bb000808f50000300360020002000cb1107006a
:101bc0000d003700615b800010032000808f500003
:101bd0000300360010002000c41107000600370083
:101be000615b800010032000808f500002003e00e7
:101bf0000000eb00bd110700406680004400de00dd
:101c0000674060000080fb00f11107003a003700d8
:101c10003167800030062000808f500003003600be
:101c20000000eb0030678800330037000000eb0055
:101c3000e71107000000eb00ac1107002e00370091
:101c4000406680004400de00674060000080fb00ca
:101c5000df110700615b800090052000808f50003d
:101c60000300360050002000a011070022003700ba
:101c7000615b8000f0042000808f5000030036007c
:101c800040002000991107001b003700615b8000b5
:101c900050042000808f50000300360030002000e8
:101ca0009211070014003700615b8000b003200030
:101cb000808f500003003600200020008b110700a9
:101cc0000d003700615b800010032000808f500002
:101cd00003003600100020008411070006003700c2
:101ce000615b800010032000808f500002003e00e6
:101cf0000000eb007d1107008760a9000080fa005a
:101d00004f03be004f02be004f01be004f00be0099
:101d10003600f900004006003600f800809fbe0043
:101d2000829fbe00849fbe00869fbe000e00fa0008
:101d3000a0b4200010079800a0b42000400798002d
:101d400000822000200798000040eb00204f980000
:101d5000c02b2000f064880090b420001040780070
:101d60000004e00090003200915a80000030200012
:101d70008080600000202000808f50004e003a00dc
:101d8000fc0c07000000e000410032000000eb0006
:101d9000f0648800315a8000f0f02f00008060006d
:101da000305a8800d0b420009040780040b4200021
:101db00001487800c0b420009040780050b4200062
:101dc0000148780060b5200010079800205a800074
:101dd000000040009e009000008040001007980026
:101de00020822000104078000080fb000000d1001d
:101df00060479800308220002007980017003700c5
:101e00002e0090009040780050b4200001487800e7
:101e10002e0090000000e800200798002e0090009f
:101e20009040780040b4200001487800215a80009a
:101e30001e009000010878001e0090000080e8005d
:101e4000100798002e0090000000e800200798007e
:101e50006e4090000040e900604798006e4090009e
:101e60000004e000e6ff3a00305a80000010a000b5
:101e7000305a8800305a80000030a100305a880063
:101e800090b420008040eb00014878004600370005
:101e900090b420008040eb0001487800305a800068
:101ea0000020a000305a8800305a80000030a10085
:101eb000305a88003c003700915a800000302000e2
:101ec0008080600000102000808f500036003a00b3
:101ed00090b4200010407800e84f500029003a00ec
:101ee0000040eb00204f98000040eb00004f7800ce
:101ef000130037004e00900090407800314f98005a
:101f00002e00900090407800414f9800be4890000d
:101f10004e48900080cf50000200320010c0b30045
:101f2000204f98004e0090000000e8004007980005
:101f30002e0090000000e800200798001e4fe800e7
:101f40001e407800e74f5000eaff36002e48900010
:101f50000004e00004003200305a80000020a0009d
:101f6000305a880003003700305a80000000a0007b
:101f7000305a8800305a80000030a100305a880062
:101f800009003700305a80000020a000305a880035
:101f900050b520008040eb0001487800305a8000a6
:101fa0000030a100305a88001011800062006000eb
:101fb0000000e0000700320002003700301180000e
:101fc000004f780010118000620060000000e00007
:101fd000faff3a0011e1a90084e0a9000080fa00ac
:101fe0004f03be004f02be004f01be004f00be00b7
:101ff0003600f90000400600809fbe000200fa0093
:102000000621ef00810880000000280000806000a9
:102010000000e00001003a0011e1a80090b42000a7
:10202000104078000004e0000f003a000082200019
:1020300010408800104080003111800081407800fd
:1020400001487800104080000000e800104088003f
:1020500090b42000104078008040e80090b4200048
:10206000014878001c0037000621ef00a032200054
:10207000000f780090b42000104078000080fb0032
:102080009e0f50000d003100104080003111800083
:102090008140780001487800104080000000e8008e
:1020a0001040880090b42000104078008040e80084
:1020b00090b42000014878000700370010408000ed
:1020c00031118000814078000148780090b42000f0
:1020d0008040eb00014878008560a9000080fa008c
:1020e0004f00be0000400600809fbe000000fa00c6
:1020f00050b520009040780040b520001040780096
:1021000080cf50002100310050b5200010407800f1
:10211000e14f500010003a00b0b4200000408800a9
:102120000e00370000408000104078000080fb0067
:1021300020118800004080000000e8000040880076
:1021400050b52000104078008040e80050b52000d5
:1021500001487800010037000000000011118000e4
:1021600000202000008060000000e0000d003a0028
:1021700050b520009040780040b520001040780015
:1021800080cf5000e7ff39000600370050b520002f
:102190008040eb000148780040b520008040eb0013
:1021a000014878008580a9000080fa004f00be0039
:1021b00000400600809fbe000000fa00f0d2200020
:1021c000104078000004e00041003200b0ce200052
:1021d00010407800e64f50000f003a00f0d2200087
:1021e00010407800e84f500004003a006069800019
:1021f0000010a00060698800350037006069800029
:102200000020a00060698800f0d220008040eb0030
:10221000014878002e003700b0ce20001040780032
:10222000e34f50000f003a00f0d220001040780039
:10223000e84f500004003a00606980000010a000e0
:102240006069880022003700606980000020a000db
:1022500060698800f0d220008040eb0001487800df
:102260001b003700b0ce200010407800f04f500027
:1022700011003a00e0d2200090407800f0d2200017
:102280001040780080cf500004003a006069800060
:102290000010a000606988000d00370060698000b0
:1022a0000020a00060698800f0d220008040eb0090
:1022b0000148780006003700606980000020a00017
:1022c00060698800f0d220008040eb00014878006f
:1022d00013e1a9008500a9000080fa004f00be00ac
:1022e00000400600809fbe000200fa006069800086
:1022f000620060000000e0005c003a000a21ef008c
:102300009108800000002800008060000000e000cc
:1023100001003a0013e1a800f0d22000104078003c
:102320000004e00010003a00a0ce200040408800e9
:1023300040408000b1128000814078000148780060
:10234000404080000000e80040408800f0d22000bb
:10235000104078008040e800f0d22000014878006a
:102360000a68ef0043003700a0ce200090407800bc
:10237000b0cc20001040780080cf50000400320024
:10238000a0ce2000104078000004e00030003a00a9
:102390000a21ef0040408000b112800081407800a7
:1023a00001487800f0d22000104078008040e8001a
:1023b000f0d2200001487800f0d2200010407800d0
:1023c000e24f500007003a00404080001040780083
:1023d000f04f500003003a00404080001040780069
:1023e0000ae8b700f0d2200010407800e74f500014
:1023f00008003a000ac8bf00f04f500005003a003c
:102400004040800010407800e9404000e0d22000c9
:1024100001487800404080000000e800404088000b
:10242000f0d2200010407800e84f50001100360034
:10243000f0d220008040eb00014878006069800005
:102440000020a0006069880013e1a900090037009e
:1024500013e1a900b1128000010f7800f0d2200032
:102460008040eb000148780002003700b112800084
:10247000010f78008e40a9000080fa004f00be00d6
:1024800000400600809fbe000200fa00f0d220004b
:1024900090407800e0d220001040780080cf5000bb
:1024a0001b003100f0d2200010407800e14f5000b6
:1024b00002003a00b0ce200030408800304080005a
:1024c000104078000080fb00a0128800304080009f
:1024d0000000e80030408800f0d220001040780072
:1024e0008040e800f0d22000014878000000eb00b6
:1024f000000f780002003700000000001e0fe80007
:102500001e007800f40f5000fbff36000600370075
:10251000f0d220008040eb0001487800e0d220009b
:102520008040eb00014878008e60a9000080fa002e
:102530004f00be0000400600809fbe000000fa0071
:1025400090c420009040780080c4200010407800a3
:1025500080cf50001600310050628000104078009b
:102560000080fb00a011880090c42000104078007b
:102570008040e80090c4200001487800506280004c
:102580000000e8005062880090c42000904078006d
:1025900080c420001040780080cf50000a003a002c
:1025a000206280000000a000206288000600370042
:1025b00090c420008040eb000148780080c42000d7
:1025c0008040eb000148780087e0a9000080fa0015
:1025d0004f00be0000400600809fbe00821f7800b2
:1025e0000200fa00c02b20007062880090c4200016
:1025f000104078000004e00005003a0000ba200016
:102600006062880080c42000e1c1b3000148780006
:1026100090c420009040780080c4200010407800d2
:1026200080cf500043003e0060628000b111800006
:102630008140780001487800606280001040780096
:10264000ed4f50000d003a00206280004400de0093
:10265000634060000040e800634060000080fb00d1
:10266000630060004400dd0022628000f1fc2f0066
:1026700081006100010070002062880021628000fa
:102680000003200000806000f00f500011003a00ad
:102690006062800010407800ea4f50000d003a0060
:1026a000206280004400de00634060000040e800db
:1026b000634060000080fb00630060004400dd00b8
:1026c00022628000f1fc2f00810061000100700097
:1026d0002062880090c42000104078000004e000d0
:1026e00007003a006062800010407800f54f50000b
:1026f00003003a0080c4200081c0b3000148780084
:10270000606280000000e8006062880090c42000e1
:10271000104078008040e80090c420000148780014
:1027200090118000610060000000e000beff3a00f0
:10273000020037004006200070628800901180007f
:10274000620060000000e000080032000300370073
:10275000b1118000010f78003222a9009011800091
:10276000620060000000e000f9ff3a0087c0a900a5
:102770000080fa004f0178004f00be0000400600c4
:102780003600f800809fbe00829fbe00849fbe007e
:10279000869fbe000600fa00e06480000000e000b2
:1027a00018003a00f05c80000000e00018003200e1
:1027b000f05c80000000e00002003a001000200001
:1027c000f05c8800f05c80000000e900f05c8800ac
:1027d000f15c800080702000808f50000200360085
:1027e00080702000f05c8800f05c80000000e00059
:1027f00007003a000000eb00f05c88004a0907007f
:1028000003003700e06480000000e900e064880015
:10281000706280000000e0003700320070628000cb
:102820000000e90070628800706280000000e00033
:1028300031003a0090c42000104078000004e0000d
:102840000a00320090c420008040eb00014878006c
:1028500080c420008040eb000148780020628000a6
:102860000020a0002062880006003700a0628000df
:102870000090a100a0628800206280000020a000db
:1028800020628800316280008007200000806000a4
:102890000000e0000e003a003162800070f82f0066
:1028a000008060000030a00030628800803e200080
:1028b000000f78008070200010079800f15c800005
:1028c0001e009000008050001e004000f05c880058
:1028d00090c420008040eb000148780080c42000b4
:1028e0008040eb000148780021628000f0fc2f005e
:1028f0000080600020628800f06480000000e0003a
:102900001e003200f06480000000e900f0648800de
:10291000f06480000000e00018003a0080b420005d
:102920008040eb000148780090b420008040eb002c
:1029300001487800305a80000030a100305a8800e9
:10294000305a80000010a100305a8800305a8000b0
:102950000000a100305a8800305a80000020a000fa
:10296000305a880040b520008040eb0001487800d4
:1029700050b520008040eb000148780010658000d1
:102980000000e00009003200106580000000e9004e
:1029900010658800106580000000e00003003a0028
:1029a000406680000000a00040668800206580002e
:1029b0000000e00009003200206580000000e9000e
:1029c00020658800206580000000e00003003a00d8
:1029d000406680000010a0004066880030658000de
:1029e0000000e00009003200306580000000e900ce
:1029f00030658800306580000000e00003003a0088
:102a0000406680000020a00040668800406580008d
:102a10000000e00009003200406580000000e9008d
:102a200040658800406580000000e00003003a0037
:102a3000406680000030a00040668800b0648000de
:102a40000000e00094003a00803e2000b06488005e
:102a500040c9200090407800b0c3b30080cf500040
:102a600087003a0040c920008040eb000148780010
:102a7000d0c7200090407800b0c3b30080cf500092
:102a800079003a00d0c720008040eb000148780070
:102a90001588a800c0c7200010407800f74f5000ec
:102aa0006b003a00c0c720008040eb00014878006e
:102ab0001568a800d001200010079800c2638000ac
:102ac000b0aa2a000010b8004308de006c00b9006c
:102ad0000000780000005100200798002e009000b0
:102ae0000000e00003003a0010002000000f780012
:102af000470037002e009000e10f500003003a001d
:102b00000000eb00000f7800410037002e0090001d
:102b1000e20f500003003a0010002000000f780080
:102b20003b0037002e009000e30f500003003a00f6
:102b30000000eb00000f7800350037002e009000f9
:102b4000e40f500003003a0010002000000f78004e
:102b50002f0037002e009000e50f500003003a00d0
:102b60000000eb00000f7800290037002e009000d5
:102b7000e60f500003003a0010002000000f78001c
:102b8000230037002e009000e70f500003003a00aa
:102b90000000eb00000f78001d0037002e009000b1
:102ba000e80f500003003a0010002000000f7800ea
:102bb000170037002e009000e90f500003003a0084
:102bc00010002000000f7800110037002e00900048
:102bd000ea0f500003003a000000eb00000f7800fd
:102be0000b0037002e009000eb0f500003003a005e
:102bf00010002000000f7800050037002e00900024
:102c0000ec0f500002003a000000eb00000f7800cb
:102c10001e0090001e0f4000d06380009e0f5000e9
:102c200007003a000000eb00d06388001548a800b8
:102c3000c06380000000e800c0638800190037000e
:102c4000d06380000000e800d063880015003700e2
:102c5000c0c72000104078008040e800c0c72000b6
:102c6000014878000f003700d0c7200010407800de
:102c70008040e800d0c720000148780009003700f4
:102c800040c92000104078008040e80040c9200082
:102c90000148780003003700b06480000000e900bc
:102ca000b06488008460a9000080fa004f03be0071
:102cb0004f02be004f01be004f00be003600f900bb
:102cc000004006000000fa008020a900ffff370046
:102cd000801f78000200fa0010c0b300004f780097
:102ce0008060a9001e4078000004e000fdff3a006b
:102cf0000080fa004f007800004006000000fa0053
:102d00008040a900ffff37000000fa008080a90082
:102d1000ffff37000040da000000fe000000050061
:102d20006022b800060220000000d0008180d2009e
:102d30000482d2008582d2000000a000020252006c
:102d400083825a00030031000202420083824a005b
:102d50000000a1000603e900f3ff3a0000000600ae
:020000040000fa
:102d600005300000303000003051000057340000c2
:102d700044300000303100003430000030300000ba
:102d8000410500003030000030300000515200009a
:102d90003444000030300000313400003230000094
:102da00030350000363700000d0a00000630000004
:102db00030300000300d00000a020000303000000a
:102dc0003030000030300000303100003030000082
:102dd0003030000030300000303000003030000073
:102de0003030000030300000303000000338000088
:102df000340d00000a0600003030000030300000c2
:042e00000d0a0000b7
:020000040000fa
:102e04001000fa000040eb00404f98000000eb0077
:102e1400000f78000000eb00100798000000eb00a2
:102e2400200798000000eb00300798000000eb003a
:102e340070079800080b0700000f78006069800095
:102e44000010a100606988001e007800e10f5000a6
:102e5400bf023a00a0ce2000104078000004e00039
:102e6400bb0232006069800063006000e10f500023
:102e7400ec013a00a0ce200090407800b0cc2000b5
:102e84001040780080cf500003003200b0ce200004
:102e94008040eb0001487800b0ce2000104078005c
:102ea400e34f500021013a00c0ce200010407800ca
:102eb4000004e000a6023a00e0ce20009040780032
:102ec400b0d2200001487800f0ce20009040780075
:102ed400a0d2200001487800d0ce200040079800fe
:102ee400c0ce20008040eb0001487800d0ce200006
:102ef400104078000080fb00200798000000eb00e1
:102f0400100798005169800031079800fe003700cf
:102f14002e009000ea0f50006b003200ea0f5000c0
:102f240019003e00e50f500048003200e50f500044
:102f34000c003e00e20f500035003200e20f50005a
:102f440003003e00e10f50002c00320099003700ce
:102f5400e30f500033003200e40f5000360032001b
:102f640094003700e70f500042003200e70f500092
:102f74003b003900e80f500043003200e90f5000d5
:102f84004a0032008b003700ef0f5000710032000e
:102f9400ef0f500009003e00ec0f500054003200c7
:102fa400ec0f50004d003900ed0f50005900320075
:102fb400ee0f5000600032007e003700010a20004e
:102fc400810f50006d003200010a2000810f500073
:102fd40003003e00f00f500063003200750037001c
:102fe400410a2000810f500077003200f10f2000c9
:102ff400810f5000660032006e003700a0b520003b
:103004005007980020002000100798006f00370038
:10301400c0b5200050079800200020001007980039
:103024006a003700e0b52000500798002000200017
:10303400100798006500370040b62000500798003c
:1030440020002000100798006000370080b62000a0
:103054005007980020002000100798005b003700fc
:10306400c0b62000500798002000200010079800e8
:103074005600370000b620005007980020002000ba
:10308400100798005100370060c7200010407800f6
:103094000080fb00700798006e00470050079800fe
:1030a400200020001007980048003700c06480000a
:1030b400700798006e004700500798002000200019
:1030c400100798004100370080c72000500798007f
:1030d40020002000100798003c003700a0c7200003
:1030e4005007980020002000100798003700370090
:1030f400c0c72000104078000080fb0070079800d3
:103104006e00470050079800200020001007980028
:103114002e003700d0c72000104078000080fb004c
:10312400700798006e0047005007980020002000a8
:10313400100798002500370040638000700798004e
:103144006e004700500798002000200010079800e8
:103154001e003700a0c9200050079800200020005e
:103164001007980019003700a0b6200050079800f7
:1031740020002000100798001400370080c82000a9
:103184005007980080002000100798000f003700b7
:1031940060698000634060000080fb007007980055
:1031a4006e00470050079800200020001007980088
:1031b4000600370020002000900a070010c0b3006a
:1031c400404f980001003700000000004e48900076
:1031d4000004e0004a003a001e009000e20f500094
:1031e40025003a005e00900090407800a0d22000b4
:1031f400014878005e0090000000e8005007980045
:103204005e00900090407800b0d220000148780021
:10321400b0d22000904078004e0090000148780021
:103224004e0090000000e80040079800a0d2200063
:10323400904078004e009000014878004e009000c5
:103244000000e80040079800c0ce2000104078003d
:1032540080c0e800c0ce2000014878002e00900015
:103264000000e800200798003e0090000000e900fc
:1032740030079800240037000000eb00000f7800ae
:10328400100037005e009000904078004e009000df
:10329400014878005e0090000000e80050079800a4
:1032a4004e0090000000e80040079800c0ce2000c7
:1032b400104078008040e800c0ce2000014878002b
:1032c4001e0fe8001e0090009e007800808f5000c2
:1032d400ecff39001e0090000000d100be009000f9
:1032e40000805000300798001e0090000000d100bc
:1032f400ae009000008040002007980002003700d4
:103304000000eb00300798003e0090000000e00051
:10331400fffe3a004e4890000004e0008c013a00a1
:103324004e009000900a070089013700b0ce2000bb
:1033340010407800e64f5000b7003a00c0ce20009d
:10334400104078000004e00081013a00e0ce200043
:1033540090407800b0d2200001487800f0ce2000e0
:1033640090407800a0d2200001487800e0ce2000f0
:1033740040079800c0ce20008040eb000148780050
:10338400d0ce2000104078000080fb002007980079
:103394000000eb0010079800b0d220001040780025
:1033a4000080fb00c800dd00a0d22000104078009f
:1033b4000080fb0000804000506988005169800053
:1033c400310798008b0037002e009000e70f500063
:1033d40018003200e70f500003003e00e60f5000d3
:1033e4000600320038003700e80f50002d0032008c
:1033f400e90f50001d00320033003700be0090007a
:10340400515b8800505b800070079800010607003c
:10341400505b800080007800a0002000f4060700c4
:103424006e00470050079800200020001007980005
:103434002a003700be009000215b8800205b8000da
:1034440070079800f3050700205b80008000780077
:103454002e009000e60607006e0047005007980013
:1034640020002000100798001c003700205b80001b
:1034740070079800205b800040638800e505070022
:10348400205b8000800078002e009000d8060700a2
:103494006e00470050079800200020001007980095
:1034a4000e00370060c72000104078000080fb0049
:1034b400700798006e004700500798002000200015
:1034c400100798000500370020002000cb090700f2
:1034d40010c0b300404f9800000000004e48900018
:1034e4000004e00041003a001e009000e20f50008a
:1034f4001c003a005e00900090407800a0d22000aa
:10350400014878005e0090000000e8005007980031
:103514005e00900090407800b0d22000014878000e
:10352400b0d22000904078004e009000014878000e
:103534004e0090000000e80040079800a0d2200050
:10354400904078004e009000014878004e009000b2
:103554000000e800400798000000eb0030079800e6
:10356400240037000000eb00000f78001000370043
:103574005e009000904078004e0090000148780072
:103584005e0090000000e800500798004e00900094
:103594000000e80040079800c0ce200010407800ea
:1035a4008040e800c0ce2000014878001e0fe800eb
:1035b4001e0090009e007800808f5000ecff3900c0
:1035c4001e0090000000d100be009000008050005a
:1035d400300798001e0090000000d100ae0090005b
:1035e4000080400020079800020037000000eb0034
:1035f400300798003e0090000000e00072ff3a009f
:103604004e4890000004e000d1003a004e009000c3
:10361400100a0700ce0037001000200077090700c9
:10362400cb00370060698000630060000000e000a8
:10363400c7003a00a0ce200090407800b0cc200013
:103644001040780080cf500003003200b0ce20003c
:103654008040eb0001487800b0ce20001040780094
:10366400e34f5000b4003a00c0ce20001040780070
:103674000004e000b6003a00e0ce2000904078005c
:10368400b0d2200001487800f0ce200090407800ad
:10369400a0d2200001487800d0ce20004007980036
:1036a400c0ce20008040eb0001487800d0ce20003e
:1036b400104078000080fb00200798000000eb0019
:1036c4001007980051698000310798009100370075
:1036d4002e009000e40f500021003200e40f50004f
:1036e40007003e00e20f500013003200e20f5000ca
:1036f40016003e00e10f50000a003200310037008e
:10370400e60f500020003200e60f50001900390087
:10371400e70f500021003200e80f5000240032006f
:1037240028003700a0b52000500798002000200092
:103734001007980028003700a0c9200050079800ff
:10374400200020001007980023003700e0b5200077
:103754005007980020002000100798001e00370032
:10376400c0b62000500798002000200010079800e1
:103774001900370000b620005007980020002000f0
:10378400100798001400370080c8200050079800e4
:10379400c0002000100798000f00370080c72000e9
:1037a4005007980040002000100798000a003700d6
:1037b400a0c7200050079800400020001007980080
:1037c40005003700200020000c09070010c0b300da
:1037d400404f9800000000004e4890000004e000b4
:1037e4004a003a001e009000e20f500025003a0003
:1037f4005e00900090407800a0d22000014878003c
:103804005e0090000000e800500798005e00900001
:1038140090407800b0d2200001487800b0d2200057
:10382400904078004e009000014878004e009000cf
:103834000000e80040079800a0d2200090407800e3
:103844004e009000014878004e0090000000e8000f
:1038540040079800c0ce20001040780080c0e800e7
:10386400c0ce2000014878002e0090000000e8003f
:10387400200798003e0090000000e90030079800ff
:10388400240037000000eb00000f78001000370020
:103894005e009000904078004e009000014878004f
:1038a4005e0090000000e800500798004e00900071
:1038b4000000e80040079800c0ce200010407800c7
:1038c4008040e800c0ce2000014878001e0fe800c8
:1038d4001e0090009e007800808f5000ecff39009d
:1038e4001e0090000000d100be0090000080500037
:1038f400300798001e0090000000d100ae00900038
:103904000080400020079800020037000000eb0010
:10391400300798003e0090000000e0006cff3a0081
:103924004e4890000004e00009003a004e00900068
:103934000d09070006003700b0ce200010407800c3
:10394400e64f50000200320010002000ab080700d0
:103954000080fa00000006001200fa00c0002000f7
:10396400600798006e009000ec0f500014003a00bd
:10397400e0bf200030079800006b29004007980042
:10398400f0c3200070079800f0c020005007980092
:10399400f0bf2000000f9800e0c0200031c4b30045
:1039a4000148780010c42000d1c0b3000148780059
:1039b40020c42000a1c0b3000148780013003700e0
:1039c40000bc200030079800006b290040079800d5
:1039d40090bf20007007980010bd20005007980089
:1039e40010bc2000000f980000bd200011c4b300db
:1039f40001487800b0bf2000d1c0b300014878006e
:103a0400c0bf2000a1c0b30001487800605b800003
:103a1400c200de00b04721000008b8000100d10058
:103a2400000f78009e007800615b8800015b8000d5
:103a3400d0cc2c000008b8004308de00000f78004a
:103a44001e017800025b8800015b800020022000d8
:103a5400808f500004003600a06280000070a00037
:103a6400a062880003003700a06280000070a100fb
:103a7400a0628800d05a80006f006000e40f5000fc
:103a840007003a00f05a8000c300de00500c220008
:103a94000008b8004408de00000f78002700370053
:103aa400d05a80006f006000e30f500007003a0016
:103ab400f05a8000c200de00b04721000008b800c0
:103ac4000100d100000f78001c003700d05a80009c
:103ad4006f006000e20f500006003a00f15a8000c7
:103ae400d0cc2c000008b8004308de00000f78009a
:103af40012003700d05a80006f006000e10f5000c0
:103b040003003a00f15a8000010f78000b003700df
:103b1400d05a80006f0060000000e00005003a0009
:103b2400f05a80006a00b90000007800000f7800a5
:103b3400020037000000eb00000f78001e0178003f
:103b4400f25a8800d15a800000f020008080600082
:103b540000402000808f500007003a00e05a8000a7
:103b6400c300de00500c22000008b8004408de0048
:103b7400000f78002e003700d15a800000f020009a
:103b84008080600000302000808f500007003a00e1
:103b9400e05a8000c200de00b04721000008b800ef
:103ba4000100d100000f780021003700d15a8000b5
:103bb40000f020008080600000202000808f5000f2
:103bc40006003a00e15a8000d0cc2c000008b8006e
:103bd4004308de00000f780015003700d15a80003a
:103be40000f020008080600000102000808f5000d2
:103bf40003003a00e15a8000010f78000c003700fe
:103c0400d15a800000f02000008060000000e00035
:103c140005003a00e05a80006a00b900000078000c
:103c2400000f7800020037000000eb00000f78005e
:103c34001e017800e25a8800c0cb200010407800b2
:103c44000080fb00e15a80001002b0000001400037
:103c540080c620000000410001087800c0cb20008d
:103c6400104078008040e800c0cb20000148780074
:103c7400d06580000000e00004003a00c0cb2000c2
:103c840010407800e44f50001e003a00c0cb2000e2
:103c940010407800e44f500003003a00c0cb2000ed
:103ca4008040eb00014878000000eb00d0658800fc
:103cb4000000eb00000f78000a003700d165800097
:103cc400120220001e0041000001400080c62000b6
:103cd400000041001000780000804000d06588009a
:103ce4001e0fe8001e007800e30f5000f3ff3600bb
:103cf400d06580004200de00d0658800d065800079
:103d0400e05a8800205b80000000e8000e020700f3
:103d1400000f78009e007800d1648800d164800090
:103d2400d0242000808f500002003600e0242000c0
:103d3400d064880010002000000f78001e00780076
:103d44000000e00003003200e05a8000b062880006
:103d540002003700d0648000b0628800005b8000fd
:103d6400c0628800605b8000d0628800c06380000d
:103d7400e0628800d0638000f0628800f05a80001e
:103d840000638800900120001063880080c8200030
:103d9400104078000080fb00000f78001e007800bf
:103da4004c00dd00000f780090c82000104078001f
:103db4000080fb00100798001e0090004800dd0002
:103dc400100798001e0090001e0f7000a0c820006d
:103dd400104078000080fb00100798001e0090003f
:103de4004400dd00100798001e0090001e0f7000b4
:103df400b0c82000104078000080fb001007980035
:103e04001e0090001e0f70001e01780032638800af
:103e1400c0c82000104078000080fb00000f78002c
:103e24001e0078004c00dd00000f7800d0c8200090
:103e3400104078000080fb00100798001e009000de
:103e44004800dd00100798001e0090001e0f70004f
:103e5400e0c82000104078000080fb0010079800a4
:103e64001e0090004400dd00100798001e00900022
:103e74001e0f7000f0c82000104078000080fb0086
:103e8400100798001e0090001e0f70009e0078001e
:103e94002163880010002000806288000001200057
:103ea400000f78000b0037004e009000904078001f
:103eb4003e009000014878003e0090000000e800b9
:103ec400300798004e0090000000e800400798007a
:103ed4001e0fe9001e0078000000e000f2ff3a0027
:103ee4003e0090000000e8003007980000c5200064
:103ef400200798002e009000100f7800d15a8000ff
:103f0400000f200000806000f00f50005b003a00ba
:103f1400a0cc200010407800e14f50000c003a0083
:103f2400a062800000a0a000a0628800a0628000bf
:103f34000050a000a0628800a0cc200010407800af
:103f44008040e800a0cc200001487800060037003b
:103f5400a0cc20008040eb0001487800a0628000e3
:103f64000050a100a0628800d1628000a00520005a
:103f7400808f500004003600b162800000222000cf
:103f8400808f500004003e00a062800000a0a100c9
:103f9400a062880003003700a062800000a0a00097
:103fa400a0628800d162800010042000808f50003d
:103fb40004003600b162800020212000808f500070
:103fc40004003e00a06280000020a000a0628800df
:103fd40003003700a06280000020a100a0628800d6
:103fe400b1628000e0212000808f50000f00360075
:103ff400b162800030222000808f50000b003e0010
:10400400d162800080042000808f500004003600bc
:10401400a06280000020a000a06288000300370096
:10402400a06280000020a100a062880050c0b300fc
:104034000ce8b70001638000d0062000808f500098
:1040440003003e000000eb00c06488005800370005
:1040540001638000d0062000808f50005400360099
:104064000163800040382000808f500050003e00e3
:1040740010002000c06488004d00370001638000f8
:10408400b05d2000808f5000030036003000200017
:10409400c06488000600370001638000300b2000f4
:1040a400808f500002003e000000eb00c0648800d6
:1040b400a062800000a0a100a0628800a06280002d
:1040c4000020a100a0628800d06580000000e0000c
:1040d40037003200e15a800070252000808f5000a4
:1040e40004003e000163800050092000808f5000ce
:1040f40026003e000cc8bf000004e0002c00320083
:104104000cc8bf000040e9000ce8b7000cc8bf00b1
:104114000004e00023003a00a0cc200011c0b3004a
:1041240001487800a06280000050a000a0628800ce
:10413400205b800040638800215b80004063800036
:1041440065005000808f500018003e0041638000dd
:10415400e0152000808f500003003e00a062800024
:104164000030a000a0628800cd00070050638800e2
:10417400a04080000000a000a0408800a040800073
:104184000010a000a040880009003700a062800051
:104194000050a100a062880050c0b3000ce8b70032
:1041a4000300370000000000010037000000000099
:1041b4000000eb0010079800330037001e00900049
:1041c400e80f500006003a00d15a8000000f20008a
:1041d40000806000f00f500001003a001e0fea005a
:1041e4001e0078004c00de00804078003e00900005
:1041f400014878003e0090000000e8003007980075
:1042040000f020001e0060004800de0080407800be
:104214003e009000014878003e0090000000e80055
:1042240030079800000f20001e0060004400de00ec
:10423400804078003e009000014878003e009000e5
:104244000000e800300798001e0078000040780065
:10425400ef4060003e009000014878003e0090006e
:104264000000e800300798002e0090000080e8006d
:10427400200798002e009000100f78001e00900078
:104284000000e800100798001e009000eb0f50009b
:10429400caff360000032000600798005e0190000a
:1042a400320798000000eb00000f7800150037007b
:1042b4003e00900010407800e94f500007003e0097
:1042c4003e0090001040780002c3b30082404000da
:1042d4003e00900001487800060037003e00900040
:1042e4001040780072c3b300824040003e0090004a
:1042f400014878003e0090000000e8003007980074
:104304001e0fe8006e0090009e007800808f500021
:10431400e7ff3900020007000080fa0000000600f1
:104324000c00fa00c0002000500798005e009000c6
:10433400ec0f500007003a00e0bf2000000f7800a7
:10434400f0c3200020079800f0bf20001007980059
:104354000600370000bc2000000f780090bf20004a
:104364002007980010bc2000100798009e009000c1
:10437400010f78000000eb004007980000042000c3
:10438400500798000000eb00300798000b0037003e
:104394001e007800104078008080fb004e009000e2
:1043a400008040000003b100400798001e0fe800a1
:1043b4003e0090000000e80030079800be00900026
:1043c4005e009000808f5000f1ff39004e01900094
:1043d40032079800be009000000f200000806000ab
:1043e4004400de00804078002e00900001487800f0
:1043f4002e00900010407800e94f500007003e0066
:104404002e0090001040780002c3b30082404000a8
:104414002e00900001487800060037002e0090001e
:104424001040780072c3b300824040002e00900018
:10443400014878002e0090000000e8002007980052
:104444003e00900000407800ef4060002e00900095
:10445400014878002e00900010407800e94f500089
:1044640007003e002e0090001040780002c3b30005
:10447400824040002e00900001487800060037007a
:104484002e0090001040780072c3b30082404000b8
:104494002e009000014878000080fa000000060019
:1044a4000600fa006000b800100798002107980081
:1044b40041638000d0092000808f50000400360042
:1044c4004063800031f62f00010f400003003700e5
:1044d40040638000d1092000008f50008007200035
:1044e400010020001007980021079800ae009000fa
:1044f400803e20000088b900000178001e00900072
:104504006000b90000007800000141009e009000a6
:10451400803e20000008b8000101410082007800bc
:104524001e0178008001eb00fcf9070010079800d9
:10453400210798009e009000010f78001e0078006b
:104544000080fa00000006000a00fa004007980004
:104554004e0090008000eb00008fbe00ce00900063
:10456400d0092000808f500030003e00d009200088
:10457400010020003e015000ae81580050638000cd
:104584008000eb00009ab90004027800028bb900a5
:1045940086027800050242000010b80001024200c1
:1045a40084007800008fbe00008fbe00c01c200075
:1045b400010020002007980031079800be009000f9
:1045c400803e20000088b900000178002e00900091
:1045d4006000b9000000780000014100ae009000c6
:1045e400803e20000008b8000101410082007800ec
:1045f4002007980031079800200798003107980099
:104604002e009000be0090001e1f50001e97580000
:104614001e00be00823e200003002000bff90700f8
:10462400008fbe001e0078002f00370034f62f00e4
:10463400f5ff2f003e014200ae814a005063800026
:104644008000eb00009ab90004027800028bb900e4
:1046540086027800050242000010b8000102420000
:1046640084007800008fbe00008fbe00c01c2000b4
:10467400010020002007980031079800be00900038
:10468400803e20000088b900000178002e009000d0
:104694006000b9000000780000014100ae00900005
:1046a400803e20000008b80001014100820078002b
:1046b40020079800310798002007980031079800d8
:1046c4002e009000be0090001e0f40005e97480030
:1046d4001e00be00823e2000030020008ff9070068
:1046e400008fbe001e0078000080fa000000060063
:1046f4000000fa001cc8bf000040e8001ce8b70036
:10470400206280000010a10020628800b06f2900a0
:104714005062880090c420008040eb00014878007b
:1047240080c4200071c0b30001487800206280007a
:104734000000a1002062880000ca20001040780018
:104744001de8b7001dc8bf000080fb00a011880051
:1047540090c42000104078008040e80090c42000fd
:1047640001487800506280000000e8005062880030
:104774000080fa00000006000c00fa000000eb00c4
:104784007062880000ba200010407800f54f500095
:1047940021003a00206280000020a00020628800ee
:1047a4003162800080072000008060000000e0008b
:1047b40017003a008070200040079800803e2000d7
:1047c40050079800f15c80004e00900080805000fb
:1047d4005e00900000804000f05c88003062800041
:1047e4004300de006f4060000040e8006f4060005e
:1047f4000080fb006f0060004300dd003262800037
:1048040071f82f008100610001007000306288009f
:10481400c9050700fd00370090c42000104078004f
:10482400e74f500079003a00606d2900000f7800ce
:1048340000ba20001007980010c0b3004047980049
:104844000000eb0030079800230037001e007800ba
:10485400104078000080fb00400798001e00900084
:10486400104078000080fb0050079800ce009000b4
:104874005e009000808f5000100032003e009000d7
:104884000000e00005003a005e00900080407800df
:1048940000ca2000014878000800370000ca200040
:1048a40061c0b300014878000040eb004047980025
:1048b400206280000020a000206288001e0fe80013
:1048c4001e0090000000e800100798003e009000d1
:1048d4000000e8003007980090c4200010407800e1
:1048e4008080fb003e009000808f5000d7ff3e0088
:1048f4004e4090000004e0001e0032003062800050
:104904004300de006f4060000080fb000000e00018
:104914000a0034008070200040079800803e200088
:1049240050079800f15c80005e0090008080500089
:104934004e00900000804000f05c880020628000ff
:104944000010a000206288003162800070f82f00ff
:10495400008060003062880090c420008040eb003a
:104964000148780080c420008040eb0001487800b2
:10497400a600370090c420008040eb000148780076
:1049840080c420008040eb00014878002062800051
:104994000020a0002062880031628000800720008f
:1049a400008060000000e00098003a00306280005f
:1049b4004300de006f4060000040e8006f4060008c
:1049c4000080fb006f0060004300dd003262800065
:1049d40071f82f00810061000100700030628800ce
:1049e4008070200040079800803e20005007980007
:1049f400f15c80004e009000808050005e009000ca
:104a040000804000f05c88008000370090c42000e3
:104a140010407800fe4f50006f003a00d06d29001e
:104a2400000f780000ba20001007980010c0b300ef
:104a3400404798000000eb0030079800180037004a
:104a44001e007800104078000080fb0040079800aa
:104a54001e009000104078000080fb005007980072
:104a6400ce0090005e009000808f50000500320060
:104a74000040eb0040479800206280000020a00026
:104a8400206288001e0fe8001e0090000000e8006d
:104a9400100798003e0090000000e80030079800de
:104aa40090c42000104078008080fb003e009000fd
:104ab400808f5000e2ff3e004e4090000004e00072
:104ac4001f003200306280004300de006f4060004f
:104ad4000080fb000000e0000a0034008070200029
:104ae40040079800803e200050079800f15c800049
:104af4005e009000808050004e00900000804000d6
:104b0400f05c8800206280000010a1002062880010
:104b14003162800070f82f000080600030628800ed
:104b240090c420008040eb000148780080c420003d
:104b34008040eb0001487800edfe070033003700a9
:104b440090c420008040eb000148780080c420001d
:104b54008040eb0001487800206280000020a00023
:104b6400206288003162800080072000008060009d
:104b74000000e00025003a00306280004300de00bf
:104b84006f4060000040e8006f4060000080fb0060
:104b94006f0060004300dd003262800071f82f0076
:104ba4008100610001007000306288008070200084
:104bb40040079800803e200050079800f15c800078
:104bc4004e009000808050005e0090000080400005
:104bd400f05c88000d003700206280000010a00007
:104be400206288003162800070f82f00008060002d
:104bf4003062880090c420008040eb0001487800b7
:104c040080c420008040eb00014878000080fa0056
:104c1400000006000000fa00a0b4200001c7b300a1
:104c240001487800b0b4200071c7b300014878008f
:104c3400c0b4200041c6b30001487800d0b42000bd
:104c4400d1c3b30001487800e0b4200001c3b3002d
:104c540001487800f0b4200041c3b3000148780053
:104c640000b5200031c3b3000148780010b520001e
:104c740001c3b3000148780040b5200081c0b300ef
:104c84000148780050b520008040eb0001487800ce
:104c9400305a80000030a000305a8800305a80001a
:104ca4000010a100305a8800305a80000000a10092
:104cb400305a8800915a8000f0cf2f0000806000a5
:104cc4000080a000905a880050b5200011c0b300a5
:104cd40001487800a10480000000210000806000e9
:104ce4000000e00001003a009580a800a0b4200074
:104cf400104078000080fb002011880000000000b4
:104d040040b52000104078000004e000fcff3a00a9
:104d1400305a80000030a100305a88000080fa0028
:104d2400000006000400fa00305a800068006000a9
:104d34000000e00051003a00a0b4200011c0b3000c
:104d440001487800b0b4200031c0b30001487800b5
:104d5400c0b420008040eb0001487800d0b42000ab
:104d64008040eb0001487800e0b420008040eb0074
:104d740001487800f0b4200021c2b3000148780053
:104d840040b5200061c0b3000148780050b5200050
:104d94008040eb000148780080b420008040eb00a4
:104da4000148780090b420008040eb00014878006e
:104db400305a80000030a000305a8800305a8000f9
:104dc4000010a100305a8800305a80000000a10071
:104dd400305a880040b520001040780080407800a8
:104de400a0b420004b010700000f78001e007800db
:104df4002047980000b52000ae409000014878009c
:104e04001e0078004800de002047980010b52000fe
:104e1400ae4090000148780040b520001040780072
:104e240080c0e80040b5200001487800915a800015
:104e3400f0cf2f00008060000090a000905a8800fe
:104e440050b5200011c0b30001487800a1048000cf
:104e540000002100008060000000e00001003a0032
:104e64009580a800a0b42000104078000080fb00ca
:104e740020118800c02b2000f06488000080fa0014
:104e8400000006000800fa00200798006147980017
:104e9400305a8000680060000000e00052003a00d0
:104ea400a0b4200011c0b30001487800b0b42000c1
:104eb40031c0b300014878002e0090004800de00a5
:104ec40080407800c0b42000014878002e00900093
:104ed40080407800d0b4200001487800e0b420007d
:104ee4008040eb0001487800f0b42000ee409000d0
:104ef4000148780040b5200061c0b3000148780043
:104f040050b520008040eb000148780080b42000b8
:104f14008040eb000148780090b420008040eb0012
:104f240001487800305a80000030a000305a8800d0
:104f3400305a80000010a100305a8800305a800096
:104f44000000a100305a880040b5200010407800cd
:104f540080407800a0b42000ee000700000f780025
:104f64001e0078002047980000b52000ae40900055
:104f7400014878001e0078004800de0020479800b1
:104f840010b52000ae4090000148780040b52000e4
:104f94001040780080c0e80040b520000148780047
:104fa400915a8000f0cf2f00008060000090a00094
:104fb400905a880050b5200011c0b3000148780011
:104fc400a104800000002100008060000000e000d7
:104fd40001003a009580a800a0b420001040780099
:104fe4000080fb00201188000080fa000000060009
:104ff4000800fa002007980031079800305a800012
:10500400680060000000e00057003a00a0b42000ef
:1050140011c0b30001487800b0b4200061c0b300ef
:10502400014878002e0090004800de00804078009f
:10503400c0b42000014878002e0090008040780021
:10504400d0b42000014878003e0090004800de0003
:1050540080407800e0b42000014878003e009000d1
:1050640080407800f0b420000148780040b520006a
:1050740061c0b3000148780050b520008040eb00c7
:105084000148780080b420008040eb00014878009b
:1050940090b420008040eb0001487800305a800032
:1050a4000030a000305a8800305a80000010a1005f
:1050b400305a8800305a80000000a100305a88001d
:1050c400004b2000f064880040b5200010407800b8
:1050d40080407800a0b420008e000700000f780004
:1050e4001e0078002047980000b52000ae409000d4
:1050f400014878001e0078004800de002047980030
:1051040010b52000ae4090000148780040b5200062
:105114001040780080c0e80040b5200001487800c5
:10512400915a8000f0cf2f00008060000080a00022
:10513400905a880050b5200011c0b300014878008f
:10514400a104800000002100008060000000e00055
:1051540001003a009580a800a0b420001040780017
:105164000080fb00201188000080fa000000060087
:105174000a00fa000080eb00000f78000040eb000a
:1051840020479800008220002007980090b4200057
:105194001040780000c0e900204798001d00370047
:1051a4002e009000104078000080fb001e0f680065
:1051b4002e0090000000e800200798000040eb005b
:1051c40030479800100037001e007800610060002e
:1051d400004078000004e000050032001e00780062
:1051e4008000d10010002a00008f680003003700ff
:1051f4001e0078000000d100000f78003e409000af
:105204000040e800304798003e409000e74f5000cf
:10521400edff36002e4090000080fb000000ea0005
:105224004f00de0000407800ae4090008140e9006d
:10523400214798000004e000d9ff3a0000822000d2
:105244002007980090b42000104078000080fb00f4
:105254000080e900ae009000008040002007980024
:105264002e009000104078000080fb00300798006a
:105274003e0090004800dd00300798002e009000aa
:105284000000e800200798002e00900010407800ed
:105294000080fb00be009000010070003007980001
:1052a4002e009000104078000080fb00400798001a
:1052b4004e0090004800dd00400798002e0090004a
:1052c4000000e900200798002e00900010407800ac
:1052d4000080fb00ce0090000100700040079800a1
:1052e4003e0090009e007800808f50000400320041
:1052f4004e0090009e007800808f500002003a001b
:1053040010002000010037000000eb000080fa00cc
:10531400000006000a00fa0030079800014f9800c8
:105324000080eb00000f78000040eb00204798005d
:10533400be009000210798008e48900021479800f5
:105344001d0037002e009000104078000080fb0004
:105354001e0f68002e0090000000e800200798004f
:105364000040eb0030479800100037001e00780022
:1053740061006000004078000004e0000500320095
:105384001e0078008000d10010002a00008f680001
:10539400030037001e0078000000d100000f7800e1
:1053a4003e4090000040e800304798003e409000a6
:1053b400e74f5000edff36002e4090000080fb00c8
:1053c4000000ea004f00de0000407800ae4090008c
:1053d4008140e900214798000004e000d9ff3a0029
:1053e4001e0078000080fa00000006000400fa00a5
:1053f400e6040700803e2000b0648800805c200042
:10540400e064880021628000f0f32f0000806000d7
:105414000060a000206288000000eb00d0658800d6
:10542400c0cb20008040eb000148780040ce200033
:1054340011c0b30001487800007d20008066880018
:1054440000f42100c06688008038210000678800cd
:1054540000ca200061c0b300014878008603070039
:10546400000407003e040700ec040700a204070040
:10547400cd02a900cd22a900cd42a900cd62a90088
:10548400cd82a900cc62a900cc82a900cca2a9003b
:10549400dc22a80000000000e1648000403d200000
:1054a400808f5000fcff3e00dc22a90000000000b9
:1054b400e1648000001e2000808f5000fcff3e004d
:1054c400dc22a80000000000e16480000019200034
:1054d400808f5000fcff3e00dc22a9000000000089
:1054e400e164800000142000808f5000fcff3e0027
:1054f400dc22a80000000000e1648000000f20000e
:10550400808f5000fcff3e00dc22a9000000000058
:10551400e1648000000a2000808f5000fcff3e0000
:10552400dc22a80000000000e164800000052000e7
:10553400808f5000fcff3e00dc22a9000000000028
:10554400e06480000000e000fdff3a00305a800073
:10555400640060000000e00002003200400020000f
:105564009a030700315a800080ff2f0000806000fa
:10557400305a8800ebfd0700401f2000f05c8800d3
:1055840000000000305a8000670060000000e00066
:10559400fcff3200305a8000640060000000e0002c
:1055a400eaff3a0010002000880307000000000012
:1055b400e06480000000e000fdff3a00dc22a90066
:1055c40060c72000c1c2b300014878001508a800d4
:1055d40080c8200011c0b3000148780090c82000a2
:1055e40091c0b30001487800a0c820008040eb00bf
:1055f40001487800b0c8200091c0b3000148780089
:10560400c0c8200011c0b30001487800d0c82000f1
:1056140021c0b30001487800e0c8200011c0b300e5
:1056240001487800f0c8200051c0b3000148780058
:105634009bfb07005063880076fd0700d120200003
:10564400900020006afe070000000000305a80002d
:10565400610060000000e000fcff3200305a80006e
:105664000000a100305a88009e00780011079800bd
:105674000000eb00100798009e00780011079800c6
:105684000000eb00100798001e007800e10f5000a6
:105694001a003200d12020009000200054fe0700a0
:1056a40000000000305a8000610060000000e0004b
:1056b400fcff3200305a80000000a100305a8800fc
:1056c400d12020007000200049fe070000000000e7
:1056d400305a8000610060000000e000fcff3200ee
:1056e400305a80000000a100305a88000000eb000e
:1056f400fd02070010002000000f78001117800041
:1057040000022000008060000000e0002b003a004e
:105714001117800000082000008060000000e000f5
:1057240018003a00d0202000406388005cfb07008a
:1057340050638800a04080000000a000a0408800c2
:10574400a04080000010a000a0408800d1202000cc
:105754007000200026fe070000000000305a800080
:10576400610060000000e000fcff3200305a80005d
:105774000000a100305a880050002000da0207001f
:10578400140037008000eb007000200018fe0700b2
:1057940000000000305a8000610060000000e0005a
:1057a400fcff3200305a80000000a100305a88000b
:1057b4000000eb00cc020700060037001117800040
:1057c40000082000008060000000e00001003200ba
:1057d400101780000000eb00000f78000300370072
:1057e400000000000100370000000000305a800073
:1057f400620060000000e00038003200f108800020
:1058040000002800008060000000e00001003a0071
:10581400f3030700406780000000a0004067880091
:10582400315a8000f0f02f0000806000305a880068
:10583400416680000007200000806000f00f5000e7
:105844000700320041668000f0f82f0000806000fd
:105854000040a0004066880010002000db02070022
:105864003df80700305a80000010a100305a88002b
:1058740090118000620060000000e0000700320028
:1058840002003700b1118000010f780090118000f0
:10589400620060000000e000faff3a00206280002d
:1058a400640060000000e00004003200803e20003c
:1058b400f05c8800a00107004600370020628000e9
:1058c400640060000000e00042003a0080702000a4
:1058d400f05c8800980107003e003700305a8000d1
:1058e400640060000000e0003a003200305a80009a
:1058f4004400de006f4060000040e8006f4060003c
:105904000080fb006f0060004400dd00325a80001c
:10591400f1f02f008100610001007000305a88000e
:10592400305a80004400de006f4060000080fb00bd
:10593400e70f500015003400315a8000f0f02f00ba
:10594400008060000070a000305a8800803e200073
:10595400f05c8800416680000007200080806000c1
:1059640000042000808f5000170032004166800040
:10597400f0f82f00008060000060a00040668800fe
:1059840040002000910207000f003700305a8000c9
:10599400640060000000e000040032008070200019
:1059a400f05c88006401070007003700305a80006b
:1059b400640060000000e00003003a0080702000f2
:1059c400f05c88005c010700305a80000020a100d0
:1059d400305a88002162800000032000808060002b
:1059e40000022000808f500005003a0021628000f0
:1059f400f0fc2f0000806000206288005efb07003e
:105a040060698000620060000000e0000100320074
:105a1400fbf40700111780000008200000806000dc
:105a24000000e0006eff3200111780000004200027
:105a3400008060000000e0006bff3a0000000000fe
:105a44001117800000042000008060000000e000c6
:105a5400fbff320065ff37000a00fa000080eb000c
:105a6400000f78000040eb0020479800a0ce2000f3
:105a740020079800f0d220001040780000c0e90010
:105a8400204798001d0037002e0090001040780039
:105a94000080fb001e0f68002e0090000000e8004c
:105aa400200798000040eb003047980010003700b2
:105ab4001e00780061006000004078000004e000ef
:105ac400050032001e0078008000d10010002a007a
:105ad400008f6800030037001e0078000000d1002a
:105ae400000f78003e4090000040e80030479800e6
:105af4003e409000e74f5000edff36002e409000ee
:105b04000080fb000000ea004f00de000040780047
:105b1400ae4090008140e900214798000004e00075
:105b2400d9ff3a00a0ce200020079800f0d2200030
:105b3400104078000080fb000080e900ae00900077
:105b440000804000200798002e009000104078004c
:105b54000080fb00300798003e0090004800dd0004
:105b6400300798002e0090000000e80020079800fd
:105b74002e009000104078000080fb00be009000d2
:105b840001007000300798002e009000104078004b
:105b94000080fb00400798004e0090004800dd00a4
:105ba400400798002e0090000000e90020079800ac
:105bb4002e009000104078000080fb00ce00900082
:105bc40001007000400798003e0090009e0078009d
:105bd400808f5000040032004e0090009e00780038
:105be400808f500002003a001000200001003700ae
:105bf4000000eb000080fa00000006000400fa0038
:105c0400204798002e409000f04f50000c003200c6
:105c1400ae40900000c2b30080cf500008003200b4
:105c2400ae40900000c3b30080cf500004003200a7
:105c3400ae40900000c4b30080cf500004003a008e
:105c4400b0ce200021c2b300014878001200370012
:105c54002e409000f14f50000c003200ae409000f6
:105c640010c2b30080cf500008003200ae40900054
:105c740010c3b30080cf500004003200ae40900047
:105c840010c4b30080cf500003003a00b0ce20000f
:105c940021c2b30001487800e0d2200051c0b30013
:105ca40001487800f0d220008040eb0001487800e1
:105cb400b0ce200010407800804078000174a0002d
:105cc400b0ce200001487800c0ce2000ae40900045
:105cd4000148780031c0b300a0ce20008dfd07003c
:105ce400000f78001e00780080407800d0ce20009d
:105cf400014878001e0078004800de0070678800c4
:105d04009112800000402000008060000000e0004c
:105d140005003a005342a800040037008e60a90031
:105d24009e60a8000100370000000000700480009d
:105d3400680060000000e000f8ff3a00a0ce2000f8
:105d4400104078000080fb00a0128800f0d22000f0
:105d5400104078008040e800f0d22000014878002c
:105d64000080fa00000006000400fa001007980002
:105d7400c0ce200010407800e3404000e0d2200074
:105d840001487800f0d220008040eb000148780000
:105d9400e0d220001040780080407800a0ce20009f
:105da4005cfd0700000f78001e007800804078003a
:105db4001e009000014878001e0090000000e800da
:105dc400100798001e0078004800de00804078002c
:105dd4001e00900001487800e0d2200010407800b6
:105de40080c0e800e0d220000148780091128000d1
:105df40000402000008060000000e00005003a0040
:105e04005342a800040037008e60a9009e60a800d9
:105e1400010037000000000070048000680060008a
:105e24000000e000f8ff3a00a0ce20001040780007
:105e34000080fb00a0128800f0d2200010407800ff
:105e44008040e800f0d22000014878000080fa0089
:105e5400000006000400fa0010079800e0d22000b9
:105e640061c0b30001487800f0d220008040eb000c
:105e740001487800e0d2200010407800804078008b
:105e8400a0ce200023fd0700000f78001e0078003c
:105e94004800de00804078001e0090000148780031
:105ea4001e0090000000e800100798001e00780013
:105eb400804078001e00900001487800e0d2200065
:105ec4001040780080c0e800e0d22000014878004b
:105ed4009112800000402000008060000000e0007b
:105ee40005003a005342a800040037008e60a90060
:105ef4009e60a800010037000000000070048000cc
:105f0400680060000000e000f8ff3a00a0ce200026
:105f1400104078000080fb00a0128800f0d220001e
:105f2400104078008040e800f0d22000014878005a
:105f34000080fa00000006000200fa0090c420006d
:105f44008040eb000148780020628000640060001b
:105f54000000e000730032002162800080ff2f0007
:105f64000080600020628800306280004300de0010
:105f74006f4060000040e8006f4060000080fb005c
:105f84006f0060004300dd003262800071f82f0072
:105f9400810061000100700030628800316280007d
:105fa400800720008080600000022000808f500065
:105fb400060032003162800080072000808060008b
:105fc40080032000808f500020003a00316280005e
:105fd400800720008080600080032000808f5000b4
:105fe40005003a003162800070f82f0000806000e4
:105ff4000030a0003062880021628000000c200084
:10600400008060000000e00006003a002162800089
:10601400f0f32f00008060000060a0002062880080
:106024000a00370021628000000c2000808060009c
:1060340000042000808f500004003a002162800098
:10604400f0f32f000080600020628800216280004d
:10605400000c2000008060000000e0001b003a00fb
:10606400c0002000000f7800a06280000090a10012
:10607400a06288001e007800ec0f500006003a0071
:1060840080c4200051c4b30001487800e0bf200060
:10609400506288000500370080c42000d1c3b300db
:1060a4000148780000bc2000506288002162800012
:1060b400f0f32f00008060002062880090c420006c
:1060c4008040eb0001487800130037002162800013
:1060d400000c20008080600000042000808f5000ad
:1060e4000d003a0080c4200051c1b300014878007b
:1060f400106c29005062880090c420008040eb009e
:106104000148780021628000f0f32f0000806000d5
:106114000060a00020628800c02b2000706288000c
:10612400450037003162800070f82f000080600065
:106134003062880021628000000c200080806000b2
:1061440000042000808f500028003a00c000200086
:10615400000f7800a1628000002020000080600011
:106164000000e00004003200a06280000090a10062
:10617400a062880003003700a06280000090a000a5
:10618400a06288001e007800ec0f500006003a0060
:1061940080c4200051c4b30001487800e0bf20004f
:1061a400506288000500370080c42000d1c3b300ca
:1061b4000148780000bc20005062880090c4200090
:1061c4008040eb00014878002162800080ff2f00ae
:1061d400008060002062880021628000f0f32f00bc
:1061e40000806000206288001100370080c4200015
:1061f40051c1b30001487800106c29005062880036
:1062040090c420008040eb000148780021628000a7
:1062140080ff2f00008060002062880021628000df
:10622400f0f32f00008060000060a000206288006e
:10623400c02b2000706288005062800010407800fb
:106244000080fb00000f78009e007800a1118800f8
:1062540090c42000104078008040e80090c42000e2
:1062640001487800506280000000e8005062880015
:106274000080fa00000006000000fa00d822a900fd
:10628400c862a900c882a900c8a2a900c902a900bd
:10629400c922a900c942a900c962a900c982a900ea
:1062a400e0e2a800e0a2a800e0c2a8000080eb00a1
:1062b400601988000080eb0050198800dc22a800d7
:1062c400811e23001000200001000100611723003b
:1062d4000000eb0001000100e842a800e862a90008
:1062e4000080fa00000006000200fa00004f780067
:1062f4001e4078000004e00006003a00cd02a80029
:10630400cd22a800cd42a800cd62a800cd82a8006d
:106314002c0037001e407800e14f500006003a0080
:10632400cd02a900cd22a800cd42a800cd62a800cc
:10633400cd82a800230037001e407800e24f5000b1
:1063440006003a00cd02a900cd22a900cd42a80042
:10635400cd62a800cd82a8001a0037001e40780044
:10636400e34f500006003a00cd02a900cd22a90057
:10637400cd42a900cd62a800cd82a800110037004b
:106384001e407800e44f500006003a00cd02a900f8
:10639400cd22a900cd42a900cd62a900cd82a800da
:1063a400080037001e407800e54f500005003a0011
:1063b400cd02a900cd22a900cd42a900cd62a90039
:1063c400cd82a9000080fa00000006000200fa0055
:1063d400004f78001e4078000004e00004003a00fa
:1063e400cc62a800cc82a800cca2a8001b00370075
:1063f4001e407800e14f500004003a00cc62a9002e
:10640400cc82a800cca2a800140037001e4078005b
:10641400e24f500004003a00cc62a800cc82a900ec
:10642400cca2a8000d0037001e407800e34f5000b6
:1064340004003a00cc62a900cc82a900cca2a80036
:10644400060037001e407800e44f500003003a0075
:10645400cc62a800cc82a800cca2a9000080fa00db
:10646400000006000000fa008000200000118800ef
:10647400004422001011880011118000f0f32f0055
:10648400008060000060a00010118800f019200056
:10649400401188002135800000fc2f00008060003e
:1064a400e001b300203588008136800000fc2f0015
:1064b400008060003000b300803688008560a90049
:1064c4008580a9009560a8009580a80041058000fa
:1064d400f0ff2800808060000000260001007000aa
:1064e400400588005105800080ff2f000080600077
:1064f4006000b3005005880021e2a8002342a800f0
:106504001021ef0094e0a80084e0a9008108800035
:10651400f0fc2f00008060000040a000800888008c
:106524001021a9004111800020022000808f50001a
:1065340003003a00204e200060088800060037005f
:1065440041118000f0192000808f500002003a00b1
:1065540080a92300600888000080fa00000006007b
:106564000000fa008000200080128800004422000d
:106574009012880091128000f0f32f0000806000d8
:106584000060a0009012880020022000c012880041
:1065940011358000f00f2c00808060000070200016
:1065a40001007000103588003136800000fc2f0097
:1065b40000806000c001b300303688008e40a9001e
:1065c4008e60a9009e40a8009e60a800610680001d
:1065d400f08f2f00808060000050200001007000c8
:1065e4006006880061068000f0ff2800808060005b
:1065f4000000250001007000600688005342a800d6
:1066040051e2a8001221ef009500a8008500a9001e
:1066140091088000f0fc2f00008060000040a00082
:10662400900888001221a900204e200070088800dc
:1066340061698000c0ff2f00008060000000a0009e
:1066440060698800b0cc200011c0b3000148780014
:086654000080fa0000000600be
:020000040000fa
:10665c0018080000020000000000000020080000e4
:10666c00800300000000000000080000060000008d
:10667c00000000001a0800000200000000000000ea
:10668c00ea0c0000460000000000000006080000b4
:10669c000600000000000000a00b0000c800000075
:1066ac00000000001c0800000200000000000000b8
:1066bc000c08000004000000000000001e08000090
:1066cc0002000000000000001008000004000000a0
:1066dc0000000000680c00008200000000000000b8
:1066ec00140800000400000000000000000000007e
:020000040000fa
:1066fc000000fa0080002000801188000044220075
:10670c009011880091118000f0f32f000080600040
:10671c000060a00090118800f0192000c0118800c2
:10672c003135800000fc2f0000806000a000b30019
:10673c003035880081368000f00f2c00808060009e
:10674c0000502000010070008036880087c0a9002e
:10675c0087e0a90097c0a80097e0a80091058000e9
:10676c00f0ff280080806000000025000100700010
:10677c009005880031e2a8003342a8000080fa009e
:10678c00000006000000fa00213a8000f08f2f0074
:10679c0000806000203a88004567a90000000000d6
:1067ac00113a80000000270080806000000021006a
:1067bc00808f5000faff3a0000000000113a800070
:1067cc0000022000008060000000e000fbff3200af
:1067dc000080fa00000006000000fa001e21ef0005
:1067ec009760a8008760a900f1088000f0fc2f00da
:1067fc00008060000040a000f00888001e21a90065
:10680c001fe1a800800c2000d00888000080fa004e
:10681c00000006000000fa000421ef009460a800bc
:10682c0021088000f0fc2f00008060000040a000d8
:10683c00200888000421a90005e1a800007d2000a3
:0c684c00100888000080fa000000060020
:020000040000fa
:020000040002f8
:04aff800bf7900001d
:020000040000fa
:020000040002f8
:04affc007f3f000093
:00000001FF
