:020000040000fa
:08000000060c040000000000e2
:020000040000fa
:101800000810000001490000000100000fd4200072
:101810000e7f24000e018800000000000c0007006d
:10182000a045230001002000110007000000200057
:101830000000e00002003200000002000000000092
:10184000cc1e0200000000000040da000000fe0094
:101850004440a900200520000000e0000300320001
:1018600000002000a00188004440a80000000600fd
:1018700091018800800078000000eb00150037001f
:10188000e280400032a0b4009101ba00e280400042
:1018900032a0b4009102ba00e280400032a0b4004d
:1018a0000002eb00472bde00f507b200602ce100e0
:1018b00004003a000059eb008301e900fdff3e00ff
:1018c000040037006128e100010032000082eb00d3
:1018d000040007001101ba000200e000e8ff3a002e
:1018e000000006003159ba008301e9000c00320003
:1018f0002159ba008301e900080032000400e00029
:1019000003003a00e280400032a0b400f5ff370047
:1019100011d9ba008301e900faff3a008100e8001a
:10192000e180400032a0b400000006000040da0070
:101930000000fe006022b800060220000000d00077
:101940008180d2000482d2008582d2000000a000f3
:101950000202520083825a00030031000202420058
:1019600083824a000000a1000603e900f3ff3a0069
:04197000000006006d
:020000040000fa
:020000040002f8
:04aff800bf7900001d
:020000040000fa
:020000040002f8
:04affc007f3f000093
:020000040000fa
:10000800960c0000a61e0000ac1e0000c01e0000da
:10001800c61e0000960c0000960c0000960c00000e
:10002800960c0000960c0000960c00007624000048
:10003800960c0000960c0000960c0000fe280000ac
:10004800642e0000960c0000960c0000362a000072
:10005800a02a0000960c0000960c0000960c0000e8
:10006800fa26000064270000960c0000960c000099
:10007800960c0000960c0000960c0000960c0000f0
:10008800960c0000960c0000960c0000ae2c0000a8
:10009800960c0000960c000054310000143100004a
:1000a800960c0000960c0000960c0000960c0000c0
:1000b800960c0000960c0000960c0000960c0000b0
:1000c800960c0000960c0000960c0000960c0000a0
:1000d800960c0000960c0000960c0000960c000090
:1000e800960c0000960c0000960c0000960c000080
:1000f800960c0000960c0000960c0000960c000070
:10010800960c0000960c0000960c0000960c00005f
:10011800960c0000960c0000960c0000960c00004f
:10012800960c0000960c0000960c0000960c00003f
:10013800960c0000960c0000960c0000960c00002f
:10014800960c0000960c0000960c0000960c00001f
:10015800960c0000960c0000960c0000960c00000f
:10016800960c0000960c0000ca2e0000722f0000aa
:10017800960c0000960c0000960c0000960c0000ef
:10018800960c0000960c0000960c0000960c0000df
:10019800960c0000960c0000960c0000960c0000cf
:1001a800960c0000960c0000960c0000960c0000bf
:1001b800960c0000960c0000960c0000960c0000af
:1001c800960c0000960c0000960c0000960c00009f
:1001d800960c0000960c0000960c0000960c00008f
:1001e800960c0000960c0000960c0000960c00007f
:0801f800960c0000960c0000bb
:020000040000fa
:10020800960c0000a61e0000ac1e0000c01e0000d8
:10021800c61e0000960c0000960c0000960c00000c
:10022800960c0000960c0000960c00007624000046
:10023800960c0000960c0000960c0000fe280000aa
:10024800642e0000960c0000960c0000362a000070
:10025800a02a0000960c0000960c0000960c0000e6
:10026800fa26000064270000960c0000960c000097
:10027800960c0000960c0000960c0000960c0000ee
:10028800960c0000960c0000960c0000ae2c0000a6
:10029800960c0000960c0000543100001431000048
:1002a800960c0000960c0000960c0000960c0000be
:1002b800960c0000960c0000960c0000960c0000ae
:1002c800960c0000960c0000960c0000960c00009e
:1002d800960c0000960c0000960c0000960c00008e
:1002e800960c0000960c0000960c0000960c00007e
:1002f800960c0000960c0000960c0000960c00006e
:10030800960c0000960c0000960c0000960c00005d
:10031800960c0000960c0000960c0000960c00004d
:10032800960c0000960c0000960c0000960c00003d
:10033800960c0000960c0000960c0000960c00002d
:10034800960c0000960c0000960c0000960c00001d
:10035800960c0000960c0000960c0000960c00000d
:10036800960c0000960c0000ca2e0000722f0000a8
:10037800960c0000960c0000960c0000960c0000ed
:10038800960c0000960c0000960c0000960c0000dd
:10039800960c0000960c0000960c0000960c0000cd
:1003a800960c0000960c0000960c0000960c0000bd
:1003b800960c0000960c0000960c0000960c0000ad
:1003c800960c0000960c0000960c0000960c00009d
:1003d800960c0000960c0000960c0000960c00008d
:1003e800960c0000960c0000960c0000960c00007d
:0803f800960c0000960c0000b9
:020000040000fa
:1019740005300000303000003051000057340000c2
:1019840044300000303100003430000030300000ba
:10199400410500003030000030300000515200009a
:1019a4003444000030300000313400003230000094
:1019b40030350000363700000d0a00000630000004
:1019c40030300000300d00000a020000303000000a
:1019d4003030000030300000303100003030000082
:1019e4003030000030300000303000003030000073
:1019f4003030000030300000303000000338000088
:101a0400340d00000a0600003030000030300000c1
:041a14000d0a0000b7
:020000040000fa
:101a18000600fa000000eb00200798000000eb0029
:101a280010079800360107000000fb002007980007
:101a38002e009000e10f500004003a00e2c2bf00ff
:101a48000042b2000004e00024003a00f0ff2f003a
:101a5800010020007065880081658800c0022000b0
:101a680010079800a0c42000000f78000000eb00c9
:101a780020079800070037009e0078000040eb0020
:101a8800804878002e0090000000e80020079800a9
:101a98001e0fe800ae0090001e009000808f5000de
:101aa800f5ff39000000eb00d06288000000eb0071
:101ab800e06288000040eb005eecb7000040eb00fd
:101ac8005fecb700d020200050628800201a200068
:101ad80060628800a70007000a003700a2c420003f
:101ae800c3c2b300010120000040eb00070007005b
:101af800d0688000620060000000e000fcff320057
:101b08001a2da9000080fa00000006000800fa005b
:101b1800004f780011079800220798006347980043
:101b2800020037000942a9000642a80009c2bf0006
:101b3800644060000004e000faff3a00000037004b
:101b480006c2bf00614060000004e000fcff3a00ec
:101b580006c2bf00644060000004e000f8ff3a00dd
:101b680006c2bf00684060000004e000f4ff3a00cd
:101b780006c2bf00704060000004e000f0ff3a00b9
:101b880009c2bf000044b2000004e000ecff3a00c4
:101b980000cab30017edb700170da9001e0090008a
:101ba80018edb7001e04e00003003a00172da90045
:101bb800174da9001100370010c0b3009e4f100048
:101bc80003003a00172da800174da9000b00370095
:101bd80020c0b3009e4f100003003a00172da90043
:101be800174da8000500370030c0b3009e4f100005
:101bf80002003a00172da800174da8000000eb00be
:101c0800d06888000040eb001eedb7001acda80090
:101c18002e009000006988001a4da80020c0b3006b
:101c28001cedb7006e4090001dedb70070d120008c
:101c3800106988000602a8000080fa00000006006b
:101c48000800fa00204798003147980022079800ba
:101c580063479800010037000942a90009c2bf0084
:101c6800644060000004e000fbff3a000000370019
:101c780006c2bf00614060000004e000fcff3a00bb
:101c880006c2bf00644060000004e000f8ff3a00ac
:101c980006c2bf00684060000004e000f4ff3a009c
:101ca80006c2bf00704060000004e000f0ff3a0088
:101cb80009c2bf000044b2000004e000ecff3a0093
:101cc80000cab30017edb700170da9003e409000f9
:101cd80018edb7002e4090000004e00003003a0021
:101ce800172da900174da900110037002e409000ac
:101cf800e14f500003003a00172da800174da90026
:101d08000b0037002e409000e24f500003003a00cd
:101d1800172da900174da800050037002e40900088
:101d2800e34f500002003a00172da800174da800f5
:101d38000000eb00d06888000040eb001eedb70003
:101d48001acda9002e009000006988001a4da8003d
:101d580020c0b3001cedb7006e4090001dedb70029
:101d680070d12000106988000602a8000080fa00df
:101d7800000006001800fa000000eb003007980089
:101d88000000eb00200798000000eb001007980007
:101d98000000eb00300798006601470013c0b3004d
:101da8008040eb000040eb00a5ff0700d0688000f2
:101db800610060000000e000fcff32001a0da9007d
:101dc800a2c4200003c1b30001c1b3000040eb006e
:101dd8009bff0700d0688000610060000000e00001
:101de800fcff32001a0da900a2c5200003c1b300f0
:101df80001c2b3000040eb0091ff0700d0688000eb
:101e0800610060000000e000fcff32001a0da9002c
:101e18000000eb00100798000000eb003007980066
:101e280008003700be00900068004700808040002e
:101e38000040eb00804878003e0090000000e80079
:101e4800300798003e009000ef0f5000f5ff360075
:101e580020002000300798001a0037000000eb002f
:101e680020079800110037001e009000804078007d
:101e78003e0090006801470003c1b30070ff0700ef
:101e8800d0688000610060000000e000fcff3200c4
:101e98001a0da9001e00900070004000100798005d
:101ea8002e0090000000e800200798002e00900007
:101eb800ef0f5000ecff36003e0090000000e800f5
:101ec800300798003e009000e30f5000e3ff360013
:101ed800c3c0b300a2c6200001c3b3000040eb009a
:101ee80057ff0700d0688000610060000000e00034
:101ef800fcff32001a0da9000080fa00000006005d
:101f08000400fa0013c0b3000e0178008000eb0053
:101f18000040eb00fdfe0700d06880006200600012
:101f28000000e000fcff32001a2da9001e407800d6
:101f3800e14f500003003a001000200010079800fd
:101f4800020037000000eb00100798001e00900008
:101f58000080fa00000006000a00fa000000eb000a
:101f6800400798000000eb0030079800706580007b
:101f780081658000e00f5000e08f580003003200b8
:101f88000000eb003007980001003700300da90071
:101f980080698000610060000000e000ec00320011
:101fa80071658000f03f200080806000f03f2000d5
:101fb800808f500011003a00a2c420003e0090001b
:101fc800f040400003c1b3000040eb001cff0700d5
:101fd800ae0ca900ae2ca900ae4ca900ae6ca900ad
:101fe800ae8ca900aeaca900aecca900aeeca9009d
:101ff800af0ca900af2ca900d5003700716580008f
:1020080000c027008080600000c02700808f50003b
:102018000d003a00a2c520003e00900003c2b300a4
:102028008340400003c1b3000040eb0004ff0700f9
:10203800af4ca900af6ca900af8ca900afaca90048
:10204800afcca900c2003700706580006100600055
:102058000000e00008003200a2c420003e0090000a
:10206800f040400023c0b3000040eb00f4fe07003e
:10207800ae0ca900b60037007065800062006000f1
:102088000000e00008003200c2c420003e009000ba
:10209800f240400023c0b3000040eb00e8fe070018
:1020a800ae2ca900aa0037007065800064006000ab
:1020b8000000e00008003200e2c420003e0090006a
:1020c800f440400023c0b3000040eb00dcfe0700f2
:1020d800ae4ca9009e003700706580006800600063
:1020e8000000e0000800320002c520003e00900019
:1020f800f640400023c0b3000040eb00d0fe0700cc
:10210800ae6ca90092003700706580007000600016
:102118000000e0000800320022c520003e009000c8
:10212800f840400023c0b3000040eb00c4fe0700a5
:10213800ae8ca9008600370070658000010220007f
:10214800010060000000e0000800320042c52000e5
:102158003e009000fa40400023c0b3000040eb006e
:10216800b7fe0700aeaca9007900370070658000a3
:1021780001042000010060000000e00008003200b7
:102188003e009000fc40400013c0b30062c5200030
:102198000040eb00aafe0700aecca9006c00370097
:1021a8007065800001082000010060000000e00068
:1021b800080032003e009000fd40400013c0b3000c
:1021c80072c520000040eb009dfe0700aeeca900a0
:1021d8005f0037007065800001102000010060007a
:1021e8000000e000080032003e009000fe40400081
:1021f80013c0b30082c520000040eb0090fe07002a
:10220800af0ca90052003700706580000120200043
:10221800010060000000e000080032003e0090006d
:10222800ff40400013c0b30092c520000040eb00ff
:1022380083fe0700af2ca9004500370070658000b9
:1022480001402000010060000000e00009003200a9
:10225800a2c520003e00900003c2b30083404000a6
:1022680023c0b3000040eb0075fe0700af4ca90087
:102278003700370070658000018020000100600091
:102288000000e00009003200c2c520003e009000b6
:1022980023c2b3008340400023c0b3000040eb00da
:1022a80067fe0700af6ca900290037007065800041
:1022b80001002100010060000000e0000900320078
:1022c8003e00900042c2b3008240400013c0b300f9
:1022d800e2c520000040eb0059fe0700af8ca900c2
:1022e8001b003700706580000100220001006000bb
:1022f8000000e000090032003e00900053c2b30025
:102308008340400013c0b300f2c520000040eb003a
:102318004bfe0700afaca9000d00370070658000c8
:1023280001002800010060000000e0000800320001
:102338003e00900002c3b30082404000c3c0b30017
:10234800a2c620000040eb003dfe0700afeca9004c
:102358000080fa00000006001800fa000040eb00b8
:10236800404798000000eb00000f98000000eb00c9
:10237800700798000000eb00600798000000eb0071
:10238800500798000000eb00100f9800930c07000e
:10239800000f9800122da9000e089000e10f5000c0
:1023a8001c023a00d0ccbf000004e0001902320041
:1023b8009068800063006000e10f500050013a000f
:1023c80001cd200091407800adccbf0080cf5000f7
:1023d800020032000040eb00d1ecb700d1ccbf00c6
:1023e800e34f50001e013a00d2ccbf000004e000c9
:1023f80008023a00d4ccbf0011edb700d5ccbf001d
:1024080010edb70030cd2000400798000040eb00e9
:10241800d2ecb700d3ccbf000080fb006007980067
:102428000000eb0070079800806880005007980053
:1024380002013700ee009000210f98002e0890004e
:10244800e90f500073003200ae089000e98f500089
:102458001d003e002e089000e40f5000510032008d
:10246800ae089000e48f50000a003e002e0890004d
:10247800e20f500041003200ae089000e28f500099
:1024880043003e002e089000e10f50003600320055
:102498009b003700ae089000e68f50004b003200da
:1024a8002e089000e60f500043003900ae08900057
:1024b800e78f50004a0032002e089000e80f5000c5
:1024c8004c0032008e003700ae089000ee8f5000ae
:1024d800710032002e089000ee0f50000d003e00f3
:1024e800ae089000eb8f5000560032002e08900086
:1024f800eb0f50004e003900ae089000ec8f5000f2
:10250800550032002e089000ed0f50005a0032009e
:102518007b003700000a2000ae089000808f500032
:1025280069003200000a2000ae089000808f500039
:1025380004003e002e089000ef0f50005d003200ae
:102548006f003700400a2000ae089000808f5000ce
:102558006f003200f00f2000ae089000808f50000e
:102568005e00320066003700a0b3200030079800f4
:10257800200020007007980065003700c0b32000d5
:10258800300798002000200070079800600037008e
:10259800e0b3200030079800200020007007980062
:1025a8005b00370040b4200030079800200020006e
:1025b800700798005600370080b420003007980054
:1025c800200020007007980051003700c0b4200098
:1025d8003007980020002000700798004c00370052
:1025e80000b42000300798002000200070079800f1
:1025f8004700370058ccbf000080fb00100f980040
:1026080072004700300798002000200070079800eb
:102618003f003700d0638000100f98007200470019
:102628003007980020002000700798003800370015
:10263800a0c52000300798002000200070079800ef
:1026480033003700c0c52000300798002000200064
:10265800700798002e0037005eccbf000080fb009a
:10266800100f9800720047003007980020002000e3
:1026780070079800260037005fccbf000080fb0081
:10268800100f9800720047003007980020002000c3
:10269800700798001e00370050628000100f9800e5
:1026a800720047003007980020002000700798004b
:1026b80017003700c0c7200030079800200020000e
:1026c8007007980012003700a0c620003007980055
:1026d80080002000700798000d0037009068800087
:1026e800634060000080fb00100f980072004700f4
:1026f8003007980020002000700798000400370079
:1027080020002000150c070010c0b30040479800b7
:102718004e4090000004e00046003a007e00900021
:10272800e20f500021003a003e009000104078006f
:1027380010edb7003e0090000000e8003007980058
:102748003e0090001040780011edb70011d1200034
:10275800914078004e009000014878004e009000ab
:102768000000e8004007980001d12000914078005f
:102778004e009000014878004e0090000000e800ec
:1027880040079800d2ccbf0000c0e800d2ecb700e8
:102798006e0090000000e800600798005e0090005e
:1027a8000000e90050079800240037000000eb0003
:1027b800000f9800100037003e009000904078000d
:1027c8004e009000014878003e0090000000e800ac
:1027d800300798004e0090000000e800400798007d
:1027e800d2ccbf000040e800d2ecb7000e08900041
:1027f8000000e800000f98008e0890007e0090000e
:10280800808f5000ecff39007e0090008000d100de
:102818005e00900001005000500798007e00900074
:102828008000d1006e009000010040006007980011
:10283800020037000000eb00500798005e0090008f
:102848000000e000fbfe3a004e4090000004e0006b
:10285800f0003a004e0090000e0c0700ed00370023
:10286800d1ccbf00e64f500022003a00d2ccbf00c6
:102878000004e000e7003a00d4ccbf0011edb70037
:10288800d5ccbf0010edb70030cd20004007980030
:102898000040eb00d2ecb700d3ccbf000080fb00b7
:1028a800600798000000eb007007980080688000bf
:1028b800500798000b0037006e009000e80f50009a
:1028c800010032000700370058ccbf000080fb0031
:1028d800100f980072004700300798002000200071
:1028e800700798005e0090000000e000f2ff3a00d8
:1028f800c800370010002000980b0700c5003700fb
:1029080090688000630060000000e000c1003a00a9
:1029180001cd200091407800adccbf0080cf5000a1
:10292800020032000040eb00d1ecb700d1ccbf0070
:10293800e34f5000b2003a00d2ccbf000004e000e0
:10294800b4003a00d4ccbf0011edb700d5ccbf001d
:1029580010edb70030cd2000400798000040eb0094
:10296800d2ecb700d3ccbf000080fb006007980012
:102978000000eb00700798008168800051079800fc
:10298800960037006e009000300f9800be08900047
:10299800e48f5000290032003e089000e40f5000f8
:1029a8000a003e00be089000e28f50001900320075
:1029b8003e089000e20f50001b003e00be08900049
:1029c800e18f50000e003200350037003e089000bd
:1029d800e60f500023003200be089000e68f50003a
:1029e8001b0039003e089000e70f5000220032001b
:1029f800be089000e88f50002400320028003700fd
:102a0800a0b320003007980020002000700798002d
:102a180027003700c0c7200030079800200020009a
:102a28007007980022003700e0b3200030079800b4
:102a380020002000700798001d003700c0b4200057
:102a48003007980020002000700798001800370011
:102a580000b420003007980020002000700798007c
:102a680013003700a0c6200030079800c0002000df
:102a7800700798000e003700a0c5200030079800a6
:102a8800400020007007980009003700c0c52000ea
:102a980030079800400020007007980004003700b5
:102aa800200020002d0b070010c0b30040479800fd
:102ab8004e4090000004e00046003a007e0090007e
:102ac800e20f500021003a003e00900010407800cc
:102ad80010edb7003e0090000000e80030079800b5
:102ae8003e0090001040780011edb70011d1200091
:102af800914078004e009000014878004e00900008
:102b08000000e8004007980001d1200091407800bb
:102b18004e009000014878004e0090000000e80048
:102b280040079800d2ccbf0000c0e800d2ecb70044
:102b38006e0090000000e800600798005e009000ba
:102b48000000e90050079800240037000000eb005f
:102b5800000f9800100037003e0090009040780069
:102b68004e009000014878003e0090000000e80008
:102b7800300798004e0090000000e80040079800d9
:102b8800d2ccbf000040e800d2ecb7000e0890009d
:102b98000000e800000f98008e0890007e0090006a
:102ba800808f5000ecff39007e0090008000d1003b
:102bb8005e00900001005000500798007e009000d1
:102bc8008000d1006e00900001004000600798006e
:102bd800020037000000eb00500798005e009000ec
:102be8000000e00067ff3a004e4090000004e0005b
:102bf80008003a004e009000260b07000500370039
:102c0800d1ccbf00e64f5000020032001000200077
:102c1800d20a07000080fa00000006001600fa0039
:102c2800c0002000000f98000e089000ec0f500024
:102c380011003a0000bc200060079800a0cb2800d3
:102c48005007980010c020004007980010bd2000d1
:102c58003007980010bc20002007980030c4b3004b
:102c6800d0ebb700d0c0b30003ecb700a0c0b300ee
:102c780004ecb7001000370020b820006007980067
:102c8800a0cb280050079800b0bb20004007980050
:102c980030b920003007980030b82000200798008d
:102ca80010c4b30092ebb700d0c0b300bdebb700bf
:102cb800a0c0b300beebb700605a800042062000f7
:102cc800110009000280d800200f98002e089000fb
:102cd800605a8800005a8000a200200011000900f4
:102ce8000280d800200f9800ae089000015a880092
:102cf800015a800020022000808f50000200360018
:102d08000aeca800010037000aeca900d05980009d
:102d18006f006000e30f500006003a00f059800091
:102d280042062000110009000280d800200f9800f8
:102d380018003700d05980006f006000e20f500083
:102d480006003a00f0598000a20020001100090096
:102d58000280d800200f98000e003700d05980005c
:102d68006f006000e10f500003003a00f059800046
:102d7800200f980007003700d05980006f006000ce
:102d88000000e00003003a00f05980006a00b90032
:102d9800200f9800ae089000f1598800d1598000a2
:102da80000f020008080600000302000808f5000fc
:102db80006003a00e0598000420620001100090090
:102dc8000280d800200f98001d003700d1598000dc
:102dd80000f020008080600000202000808f5000dc
:102de80006003a00e0598000a20020001100090006
:102df8000280d800200f980011003700d1598000b8
:102e080000f020008080600000102000808f5000bb
:102e180003003a00e0598000200f980008003700ae
:102e2800d059800001f02000010060000000e0009f
:102e380003003a00e05980006a00b900200f9800aa
:102e4800ae089000e15988009eccbf000080fb00ce
:102e5800e2598000000040002104200080804000ea
:102e6800a0c4200000804000020878009eccbf006b
:102e78000040e8009eecb700e06480000000e0003d
:102e880003003a009eccbf00e44f50001f003a00f8
:102e98009eccbf00e44f500002003a000040eb0017
:102ea8009eecb7000000eb00e06488000000eb0037
:102eb800200f98000d003700e26480002e08900073
:102ec800000040002104200080804000a0c42000b1
:102ed800008040001000780000004100e064880095
:102ee8002e0890000000e800200f98002e0890009f
:102ef800e30f5000f0ff3600e06480004200de007f
:102f0800e0648800e0648000e0598800205a80006e
:102f18000000e800f4010700200f98002e08900038
:102f2800e0638800e1638000d0242000808f500097
:102f380002003600e0242000e06388001000200032
:102f4800200f98002e0890000000e00003003200d7
:102f5800e05980006060880002003700e06380006c
:102f680060608800005a800070608800605a8000a5
:102f780080608800d062800090608800e0628000f5
:102f8800a0608800f0598000b0608800900120009f
:102f9800c0608800506280004206200011000900cd
:102fa8000280d800200f98002e0890004c00dd0009
:102fb800200f98005062800042062000110009008e
:102fc8000280d8008000fd00a20020001100090046
:102fd8000280d800100f98001e0890004800dd00fd
:102fe800100f9800ae0890001e0890000080700036
:102ff800200f980050628000a200200011000900f4
:103008000280d8008000fd00100f98001e08900074
:103018004400dd00100f9800ae0890001e089000d4
:1030280000807000200f98000000eb00100f98003f
:10303800ae0890001e08900000807000200f9800d5
:10304800ae089000e1608800e05980004206200048
:10305800110009000280d800200f98002e08900067
:103068004c00dd00200f9800e05980004206200047
:10307800110009000280d8008000fd00a200200095
:10308800110009000280d800100f98001e08900057
:103098004800dd00100f9800ae0890001e08900050
:1030a80000807000200f9800e0598000a2002000e6
:1030b800110009000280d8008000fd00100f980060
:1030c8001e0890004400dd00100f9800ae08900024
:1030d8001e08900000807000200f98000000eb0090
:1030e800100f9800ae0890001e0890000080700035
:1030f800200f98002e089000d06088001000200053
:103108003060880000012000200f98000d00370073
:103118005e009000904078006e00900001487800b2
:103128006e0090000000e800600798005e009000c4
:103138000000e800500798002e0890000000e90001
:10314800200f98002e0890000000e000f0ff3a00e1
:103158006e0090000000e8006007980060c0200042
:10316800700798007e00900090007800210f98006a
:10317800d1598000000f200000806000f00f50003f
:103188002e003a00acccbf00e14f500006003a00d8
:103198000b4ca8000aaca800acccbf000040e8006b
:1031a800acecb700030037000040eb00acecb70014
:1031b8000aaca9008160800080052000808f500043
:1031c80002003e000b4ca900010037000b4ca80080
:1031d8008160800050032000808f500002003e0074
:1031e8000a2ca800010037000a2ca90050c0b3001f
:1031f80035edb700b1608000d0062000808f500008
:1032080003003e000000eb00d06388004700370051
:10321800b1608000d0062000808f50004300360047
:10322800b160800040382000808f50003f003e0091
:1032380010002000d06388003c003700b160800097
:10324800b05d2000808f5000030036003000200061
:10325800d063880006003700b1608000300b200082
:10326800808f500002003e000000eb00d063880011
:103278000b4ca9000a2ca900e06480000000e000c3
:103288002a003200e159800070252000808f50000c
:1032980004003e00b160800050092000808f50007b
:1032a8001f003e0035cdbf000004e0001f003200c3
:1032b80035cdbf000040e90035edb70035cdbf0082
:1032c8000004e00019003a0010c0b300acecb700ed
:1032d8000aaca800205a800050628800215a800059
:1032e8005062800065005000808f50000f003e0043
:1032f80051628000e0152000808f500001003e00e0
:103308000a6ca800ce00070060628800ae0ca80016
:10331800ae2ca8008038210090698800030037008f
:103328000aaca90050c0b30035edb7000000eb00af
:10333800100f9800390037001e089000e80f500061
:1033480008003a00d0598000010f200001006000f9
:10335800f00f500003003a002e0890000000ea0029
:10336800200f9800ae08900000002f000080600039
:103378004c00de00804078006e0090000148780024
:103388006e0090000000e80060079800ae0890000a
:1033980000f02000008060004800de0080407800d7
:1033a8006e009000014878006e0090000000e80070
:1033b80060079800ae089000000f200000806000b1
:1033c8004400de00804078006e00900001487800dc
:1033d8006e0090000000e800600798002e0890003a
:1033e800ef4060006e009000014878006e00900089
:1033f8000000e800600798007e0090000080e80068
:10340800700798007e00900090007800210f9800c7
:103418001e0890000000e800100f98001e08900099
:10342800eb0f5000c4ff360000032000000f980087
:103438003e009000600798000000eb00200f980005
:10344800170037006e00900010407800e94f5000d8
:1034580007003e006e009000104078000043b00066
:10346800804078006e009000014878000600370020
:103478006e009000104078007043b00080407800e3
:103488006e009000014878006e0090000000e8008f
:10349800600798002e0890000000e800200f9800b0
:1034a800ae0890000e089000808f5000e5ff3900ac
:1034b800020007000080fa00000006000c00fa0075
:1034c800c0002000000f7800c00020009e0f1000f0
:1034d80007003a0000bc20005007980010c02000e8
:1034e8003007980010bc20004007980006003700fd
:1034f80020b8200050079800b0bb20003007980083
:1035080030b82000400798004e00900050079800ff
:103518000000eb001007980000042000000f78005e
:103528000000eb00200798000e0037005e009000b6
:10353800104078008080fb001e00900080804000d2
:1035480000fd2f0000804000100798005e009000ea
:103558000000e800500798002e0090000000e800e6
:10356800200798002e0090009e0f5000efff3900b2
:103578001e00900020079800ae009000000f200069
:10358800008060004400de00804078003e0090002b
:10359800014878003e00900010407800e94f500044
:1035a80007003e003e009000104078000043b00045
:1035b800804078003e0090000148780006003700ff
:1035c8003e009000104078007043b00080407800c2
:1035d8003e009000014878003e0090000000e8009e
:1035e800300798002e009000ef4060003e009000e9
:1035f800014878003e00900010407800e94f5000e4
:1036080007003e003e009000104078000043b000e4
:10361800804078003e00900001487800060037009e
:103628003e009000104078007043b0008040780061
:103638003e009000014878000080fa000000060073
:103648000600fa006000b8001007980021079800eb
:1036580051628000d0092000808f5000040036009d
:103668005162800030f62f00008f400003003700c1
:1036780051628000d0092000010f5000800720000f
:103688000100200010079800210798009e00900074
:10369800803e2000000ab8001e0090006000b900bb
:1036a8000501780000014100ae009000803e200036
:1036b8000088b90000014100820278001e007800ed
:1036c8006101b8000400be0098f8070010079800d0
:1036d800210798001e009000000f78001e00780057
:1036e8000080fa00000006000e00fa00889fbe0065
:1036f800500798005e0090000100200030079800f5
:1037080041079800de009000d0092000808f50000b
:1037180037003e00d2092000030020003e00900040
:10372800ce0090000004510081845900606280003e
:103738006103b8008800780006007800000ab80025
:1037480007c0b900050178000001410009b0b900bf
:10375800000141008202780034079800450798006c
:10376800c01c2000010020001007980021079800c5
:103778009e009000803e20000009b8001e009000c6
:103788006000b9000302780000024200ae00900019
:10379800803e20000088b9000002420084017800c1
:1037a80012079800230798001e019000ae019000b0
:1037b8003e009000ce00900000005100818059002a
:1037c80030079800410798003e009000ce00900016
:1037d800823e20000300200054f8070030079800bc
:1037e800410798003e0090006007980036003700b7
:1037f8003e019000ce01900030f62f00f1ff2f001f
:103808000204400083844800606280006103b800bd
:103818008800780006007800000ab80007c0b900e0
:10382800050178000001410009b0b900000141001c
:10383800820278003407980045079800c01c2000d1
:103848000100200010079800210798009e009000b2
:10385800803e20000009b8001e0090006000b900fa
:103868000302780000024200ae009000803e200073
:103878000088b9000002420084017800120798000d
:10388800230798003e019000ce0190001e00900092
:10389800ae00900002004000838048003007980086
:1038a800410798003e009000ce009000823e200024
:1038b800030020001df80700300798004107980012
:1038c8003e009000600798006e0090004f04be0014
:1038d8000080fa00000006000200fa0081cbbf0059
:1038e8000040e80081ebb7003e2ca90050d028002a
:1038f800206288000040eb0043ecb70070c0b300c2
:1039080042ecb7003e0ca90082ccbf0080ebb700a8
:1039180080cbbf000080fb00a011880043ccbf0013
:103928000040e80043ecb700206280000000e80097
:10393800206288000080fa00000006000c00fa00ef
:103948000000eb00406288001eccbf00f54f50001d
:103958001e003a003e4ca80000628000810720004b
:10396800010060000000e00016003a0080702000ae
:1039780010079800803e2000000f7800f15b80005f
:103988001e009000010050001e001000f05b88002f
:10399800006280004300de006f4060000040e800e5
:1039a8006f4060000080fb006f0060004301dd0095
:1039b8000162800070f82f00008060000200700033
:1039c800006288006c090700dc00370043ccbf00a8
:1039d800e74f50006a003a0000ce280050079800d0
:1039e800e0c120004007980010c0b300604798006d
:1039f8000000eb00200798001f0037005e009000d1
:103a0800104078000080fb00100798004e009000de
:103a1800104078000080fb00000f78001e00900026
:103a28009e0f50000b0032002e0090000000e000b6
:103a380003003a001e00780082ecb700050037004a
:103a480060c0b30082ecb7000040eb00604798000c
:103a58003e4ca8005e0090000000e8005007980067
:103a68004e0090000000e800400798002e009000eb
:103a78000000e8002007980043ccbf008080fb00ce
:103a88002e009000808f5000dcff3e006e409000ba
:103a98000004e00019003200006280004300de00ec
:103aa8006f4060000080fb000000e0000900340067
:103ab8008070200010079800803e2000000f7800da
:103ac800f05b80009e0010001e0090000100500076
:103ad800f05b88003e2ca800406ca900408ca9002f
:103ae80040aca90040cca9000040eb0043ecb70073
:103af8000040eb0042ecb700900037000040eb00bc
:103b080043ecb7000040eb0042ecb7003e4ca80085
:103b18000162800080072000008060000000e00053
:103b280086003a00006280004300de006f406000bb
:103b38000040e8006f4060000080fb006f006000fc
:103b48004301dd000162800070f82f0000806000f2
:103b58000200700000628800807020001007980042
:103b6800803e2000000f7800f15b80001e0090006e
:103b7800010050001e001000f05b88006f00370045
:103b880043ccbf00fe4f500063003a0070ce2800bf
:103b980050079800e0c120004007980010c0b3000b
:103ba800604798000000eb002007980017003700d6
:103bb8005e009000104078000080fb00100798001d
:103bc8004e009000104078000080fb00000f780045
:103bd8001e0090009e0f5000030032000040eb00d2
:103be800604798003e4ca8005e0090000000e80086
:103bf800500798004e0090000000e8004007980029
:103c08002e0090000000e8002007980043ccbf0079
:103c18008080fb002e009000808f5000e4ff3e0063
:103c28006e4090000004e0001a003200006280003c
:103c38004300de006f4060000080fb000000e000f1
:103c4800090034008070200010079800803e200092
:103c5800000f7800f05b80009e0010001e009000ae
:103c680001005000f05b88003e2ca900406ca900c0
:103c7800408ca90040aca90040cca9000040eb0052
:103c880043ecb7000040eb0042ecb70012ff07001e
:103c98002a0037000040eb0043ecb7000040eb007f
:103ca80042ecb7003e4ca80001628000800720006b
:103cb800008060000000e00020003a000062800000
:103cc8004300de006f4060000040e8006f40600085
:103cd8000080fb006f0060004301dd00016280008e
:103ce80070f82f00008060000200700000628800f9
:103cf8008070200010079800803e2000000f780098
:103d0800f15b80001e009000010050001e001000b2
:103d1800f05b8800090037003e2ca800406ca90021
:103d2800408ca90040aca90040cca9000040eb00a1
:103d380043ecb7000040eb0042ecb7000080fa000b
:103d4800000006000000fa008020a900ffff3700ed
:103d5800801f78000200fa0010c0b300004f7800fe
:103d68008060a9001e04e000feff3a000080fa000f
:103d78004f007800004006000000fa008040a900cb
:103d8800ffff37000000fa008080a900ffff37001e
:103d98000600fa001e0b0700803e2000c063880062
:103da800805c2000f06388003ecca8003eeca900af
:103db8000000eb00e06488000040eb009eecb700d8
:103dc80010c0b300caecb700007d2000b0658800c1
:103dd80000f42100f06588008038210030668800f2
:103de80060c0b30082ecb7008f090700050a07001e
:103df800490a0700ec030700850a0700d00a0700f4
:103e0800cd02a900cd22a900cd42a900cd62a9000a
:103e1800cd82a900cc62a900cc82a900cca2a900bd
:103e2800dc22a800f1638000403d2000808f500014
:103e3800fcff3e00dc22a900f1638000001e200088
:103e4800808f5000fcff3e00dc22a800f163800058
:103e580000192000808f5000fcff3e00dc22a900e2
:103e6800f163800000142000808f5000fcff3e00aa
:103e7800dc22a800f1638000000f2000808f500032
:103e8800fcff3e00dc22a900f1638000000a20004c
:103e9800808f5000fcff3e00dc22a800f163800008
:103ea80000052000808f5000fcff3e00dc22a900a6
:103eb800f06380000000e000fdff3a0090598000a8
:103ec800640060000000e0000200320040002000b2
:103ed800a7090700320ba900322ba900324ba90011
:103ee80022010700401f2000f05b880090598000e5
:103ef800670060000000e000fcff3200905980007d
:103f0800640060000000e000ecff3a0010002000b0
:103f180097090700f06380000000e000fdff3a0009
:103f2800dc22a900baf60700f5f707000000fb003d
:103f380020079800d020200050628800c0c2b3003b
:103f480058ecb700af0ca8008038210090698800b1
:103f580020c0b3006aecb7000040eb006becb70080
:103f680010c0b3006cecb70090c0b3006decb700a4
:103f78000040eb006eecb70010c0b3006fecb70068
:103f88000040eb0070ecb70010c0b30071ecb70054
:103f9800abfd070060628800d1202000900020005f
:103fa8007701070090598000610060000000e00080
:103fb800fcff3200320ba9002e009000000f7800a1
:103fc8000000eb00000f78002e009000000f780032
:103fd8000000eb00000f78002e009000e10f500069
:103fe8001e003200d120200090002000640107004c
:103ff80090598000610060000000e000fcff320082
:10400800320ba900d1202000700020005c010700bd
:1040180090598000610060000000e000fcff320061
:10402800320ba9000000eb0019090700100020005e
:10403800200798006401470013c0b3008040eb00dc
:104048000040eb00fef60700d068800061006000c9
:104058000000e000fcff32001a0da900e2c2bf0018
:104068000042b2000004e00023003a00e2c2bf00b0
:1040780001c8b300014060000004e00013003a00ea
:10408800d0202000506288006dfd07006062880023
:10409800ae0ca800ae2ca8008038210090698800da
:1040a800d1202000700020003501070090598000c1
:1040b800610060000000e000fcff3200320ba90044
:1040c80050002000f2080700110037008000eb00c4
:1040d800700020002a0107009059800061006000ec
:1040e8000000e000fcff3200320ba9000000eb00ea
:1040f800e708070006003700e2c2bf0001c8b300a6
:10410800014060000004e00001003200e2c2bf008c
:104118000000eb002007980000003700905980004d
:10412800620060000000e000320032001fc1bf00e2
:1041380001c8b300014060000004e00001003a003b
:10414800220a0700ce0ca800328ba90032aba900c6
:1041580032cba90032eba90050658000010720008e
:1041680001006000f00f500005003200aa8ca80082
:10417800aaaca900aacca90010002000fc080700de
:10418800a6fa0700322ba90032c2bf0062406000c5
:104198000004e0000700320002003700b011800080
:1041a8002007980032c2bf00624060000004e000af
:1041b800faff3a00f0618000640060000000e0004f
:1041c80004003200803e2000f05b88006a07070088
:1041d80041003700f0618000640060000000e000ea
:1041e8003d003a0080702000f05b880062070700fd
:1041f8003900370090598000640060000000e0003a
:1042080035003200905980004400de006f406000a5
:104218000040e8006f4060000080fb006f00600015
:104228004401dd0091598000f0f02f00008060000b
:104238000200700090598800905980004400de0008
:104248006f4060000080fb00e70f50001200340050
:10425800328ba90032aba90032cba90032eba800ff
:10426800803e2000f05b8800516580000007200038
:104278008080600000042000808f5000150032000c
:10428800aa8ca900aaaca900aacca80040002000ca
:10429800b70807000f0037009059800064006000dd
:1042a8000000e0000400320080702000f05b88000d
:1042b800310707000700370090598000640060004c
:1042c8000000e00003003a0080702000f05b8800e6
:1042d80029070700324ba900f16180000003200084
:1042e8008080600000022000808f500003003a00a8
:1042f8003e8ca9003eaca90090fd0700d068800064
:10430800640060000000e00005003a008069800059
:10431800610060000000e000010032000ef70700b5
:1043280090688000620060000000e0000100320038
:1043380009f80700e2c2bf0001c8b30001406000ed
:104348000004e00075ff3200e2c2bf000044b20082
:104358000004e00071ff3a00e2c2bf000044b2006e
:104368000004e000fcff32006cff37000400fa0094
:1043780090598000680060000000e00038003a00b2
:1043880010c0b30000e8b70030c0b30001e8b700c0
:104398000040eb0002e8b7000040eb0003e8b7007c
:1043a8000040eb0004e8b70020c2b30005e8b700fe
:1043b80060c0b3000ae8b7000040eb000be8b700a4
:1043c8000040eb0034ebb7000040eb0035ebb700e2
:1043d800326ba800322ba900320ba900a180200063
:1043e80091407800008020000c0107001007980019
:1043f8001e009000004f78001e40780006e8b700c5
:104408009e00900000f02f00008060004800de0051
:10441800004f78001e40780007e8b7000ac8bf00c0
:1044280000c0e8000ae8b7000908a9000928a800a0
:1044380010c0b3000be8b70095c0bf007040600023
:104448000004e00001003a009580a80000c8bf0001
:104458000080fb0020118800c02b20000064880029
:104468000080fa00000006000800fa002007980003
:104478006147980090598000680060000000e000e3
:104488003d003a0010c0b30000e8b70030c0b300e8
:1044980001e8b700ae00900000f02f000080600037
:1044a8004800de0002e8b7002e00900003e8b700dd
:1044b8006e4090008080fb0000f02f0000806000bc
:1044c8004800de0004e8b7006e40900005e8b70039
:1044d80060c0b3000ae8b7000040eb000be8b70083
:1044e8000040eb0034ebb7000040eb0035ebb700c1
:1044f800326ba800322ba900320ba900a180200042
:104508009140780000802000c40007001007980040
:104518001e009000004f78001e40780006e8b700a3
:104528009e00900000f02f00008060004800de0030
:10453800004f78001e40780007e8b7000ac8bf009f
:1045480000c0e8000ae8b7000908a9000928a8007f
:1045580010c0b3000be8b70095c0bf007040600002
:104568000004e00001003a009580a80000c8bf00e0
:104578000080fb00201188000080fa00000006007f
:104588000800fa0020079800310798009059800029
:10459800680060000000e0003e003a0010c0b30070
:1045a80000e8b70060c0b30001e8b700ae009000b3
:1045b80000f02f00008060004800de0002e8b7002d
:1045c8002e00900003e8b700be00900000f02f0016
:1045d800008060004800de0004e8b7003e0090005c
:1045e80005e8b70060c0b3000ae8b7000040eb0078
:1045f8000be8b7000040eb0034ebb7000040eb00dd
:1046080035ebb700326ba800322ba900320ba9009a
:10461800004b200000648800a180200091407800b1
:10462800008020007d000700100798001e00900001
:10463800004f78001e40780006e8b7009e00900002
:1046480000f02f00008060004800de00004f780076
:104658001e40780007e8b7000ac8bf0000c0e8009d
:104668000ae8b7000908a8000928a90010c0b30083
:104678000be8b70095c0bf00704060000004e00080
:1046880001003a009580a80000c8bf000080fb0028
:10469800201188000080fa00000006000c00fa00d3
:1046a8000080eb00400798000040eb00304798007e
:1046b800c0802000000f780035cbbf0000c0e900a3
:1046c800304798001d0037001e0078001040780021
:1046d8008080fb004e0090000100680040079800b1
:1046e8001e0fe8000040eb0020479800100037003c
:1046f8004e009000610060000004e00006003200f7
:104708004e0090008000d10010002a000080680050
:1047180040079800030037004e0090000000d100c9
:10472800400798002e4090000040e800204798007d
:104738002e409000e74f5000edff36003e409000bd
:104748000040e900304798003e409000e14f4000ab
:10475800ddff3a00c0802000000f780035cbbf0095
:104768000080fb001e004000008fe9001e0078005a
:10477800104078000080fb00300798003e00900051
:104788004800dd00300798001e0fe8001e00780082
:10479800104078008080fb003e009000010070000f
:1047a800300798001e007800104078000080fb0059
:1047b800200798002e0090004800dd002007980090
:1047c8001e0fe9001e007800104078008080fb0072
:1047d8002e0090000100700020079800ce00900085
:1047e8003e009000808f500004003200ce00900000
:1047f8002e009000808f500003003a001000200027
:1048080050079800020037000000eb00500798009e
:104818005e0090000080fa00000006000a00fa001e
:1048280030079800014f98000080eb00200798009f
:104838000040eb00304798003e009000000f7800e1
:104848000e489000304798001d0037001e00780081
:10485800104078008080fb002e0090000100680066
:10486800200798001e0fe8000040eb002047980042
:10487800100037002e009000610060000004e00086
:10488800060032002e0090008000d10010002a009f
:104898000080680020079800030037002e00900071
:1048a8000000d100200798002e4090000040e8004a
:1048b800204798002e409000e74f5000edff36004b
:1048c8003e4090000040e900304798003e4090008c
:1048d800e14f4000ddff3a002e0090000080fa0012
:1048e800000006003600f800809fbe00829fbe00d0
:1048f800849fbe00869fbe000600fa00f063800019
:104908000000e00018003a00f05b80000000e000c2
:1049180018003200f05b80000000e00002003a005e
:1049280010002000f05b8800f05b80000000e900c8
:10493800f05b8800f15b800080702000808f500061
:104948000200360080702000f05b8800f05b800079
:104958000000e00007003a000000eb00f05b880070
:1049680082fe070003003700f06380000000e900c2
:10497800f0638800406280000000e0002a003200f6
:10498800406280000000e9004062880040628000c8
:104998000000e00024003a0043ccbf000004e0001f
:1049a800060032000040eb0043ecb7000040eb008b
:1049b80042ecb7003e4ca800020037000b2ca900bf
:1049c8003e4ca800006280008107200001006000c2
:1049d8000000e0000e003a00406ca800408ca900de
:1049e80040aca90040cca900803e200020079800d8
:1049f8008070200010079800f15b80001e00900076
:104a0800810050002e00900001005000f05b8800eb
:104a18000040eb0043ecb7000040eb0042ecb7006d
:104a28003e8ca9003eaca900006480000000e000b4
:104a380012003200006480000000e9000064880071
:104a4800006480000000e0000c003a000040eb0029
:104a580034ebb7000040eb0035ebb700326ba90030
:104a6800322ba900320ba900324ba8000040eb0002
:104a78000ae8b7000040eb000be8b70020648000ac
:104a88000000e00007003200206480000000e90018
:104a980020648800206480000000e00001003a00e3
:104aa800aa0ca800306480000000e0000700320073
:104ab800306480000000e9003064880030648000c1
:104ac8000000e00001003a00aa2ca8004064800021
:104ad8000000e00007003200406480000000e900a8
:104ae80040648800406480000000e00001003a0053
:104af800aa4ca800506480000000e00007003200c3
:104b0800506480000000e900506488005064800010
:104b18000000e00001003a00aa6ca800906980003b
:104b28000000e00007003200906980000000e90002
:104b380090698800906980000000e00001003a0058
:104b4800300da800c06380000000e0008b003a0030
:104b5800803e2000c063880061c720009140780033
:104b6800b0c3b30080cf500080003a000040eb0093
:104b780076ecb700f1c5200091407800b0c3b300cf
:104b880080cf500075003a000040eb005fecb700a2
:104b9800af8ca800300da8005eccbf00f74f5000c6
:104ba8006a003a000040eb005eecb700af6ca8006a
:104bb800d001200010079800d0628000c2002000b9
:104bc800110009000280d8008000fd00000f780065
:104bd8001e00e00003003a001000200020079800a3
:104be80047003700100020009e0f100003003a0015
:104bf8000000eb002007980041003700200020004b
:104c08009e0f100003003a001000200020079800b3
:104c18003b003700300020009e0f100003003a00d0
:104c28000000eb0020079800350037004000200006
:104c38009e0f100003003a00100020002007980083
:104c48002f003700500020009e0f100003003a008c
:104c58000000eb00200798002900370060002000c2
:104c68009e0f100003003a00100020002007980053
:104c780023003700700020009e0f100003003a0048
:104c88000000eb00200798001d003700800020007e
:104c98009e0f100003003a00100020002007980023
:104ca80017003700900020009e0f100003003a0004
:104cb800100020002007980011003700a0002000f5
:104cc8009e0f100003003a000000eb002007980038
:104cd8000b003700b00020009e0f100003003a00c0
:104ce800100020002007980005003700c0002000b1
:104cf8009e0f100002003a000000eb002007980009
:104d0800ae0090001e009000008040002007980030
:104d1800e16280002e009000808f500007003a006a
:104d28000000eb00e0628800af4ca800d062800071
:104d38000000e800d062880013003700e0628000bd
:104d48000000e800e06288000f0037005eccbf007a
:104d58000040e8005eecb7000b0037005fccbf00f6
:104d68000040e8005fecb7000700370076ccbf00d2
:104d78000040e80076ecb70003003700c06380000d
:104d88000000e900c06388008460a9000080fa0080
:104d98004f03be004f02be004f01be004f00be00d1
:104da8003600f900004006000000fa000000eb00a1
:104db800200888009460a8008460a90041102000a1
:104dc80091407800f0ccb30000c060000044a0001f
:104dd80004e1b7000421a90005e1a800007d200036
:104de800100888000080fa0000000600809fbe00be
:104df8000000fa0008c2bf00684060000004e0003c
:104e08002a00320008c2bf000042b2000004e000dd
:104e18001a003200b0688000011020000100600014
:104e28000000e000040032001069800001108000da
:104e380001487800030037001069800001108000e5
:104e480001487800106980000000e80010698800b7
:104e58001ecdbf000040e8001eedb700e1d12000e4
:104e6800914078001dcdbf0080cf500001003a006e
:104e78001a4da9000782a8000d0037001a0da900d5
:104e88001a2da9001a4da9001a6da9001a4da800db
:104e980040c0b3001dedb7000040eb001eedb700a9
:104ea8000010800017edb7000100370008c2bf00ee
:104eb8008600a9000080fa004f00be0000400600ee
:104ec800809fbe00821f78000000fa0009c2bf0060
:104ed800644060000004e000bd003a0008c2bf0062
:104ee800684060000004e000a3003200b068800061
:104ef80001102000010060000000e00044003200c2
:104f0800d0688000700060000000e00005003a00f2
:104f1800d068800001082000010060000000e00067
:104f28001d0032001ecdbf000081fb001ccdbf005c
:104f38008080fb001dcdbf000080fb00008040008a
:104f4800800f510005003d000662a8001b0da80057
:104f58001aeda9001a8da9009b0037001ecdbf00cd
:104f68000081fb001ccdbf008080fb001dcdbf0071
:104f78000080fb0000804000800f510001003400d9
:104f8800ffff37000642a8001a8da9001aeda900f4
:104f98001a4da9008c003700d0688000011020004d
:104fa800010060000000e000870032001169800005
:104fb8000010800080487800106980000000e80038
:104fc800106988001ecdbf000040e8001eedb70044
:104fd8001ecdbf000081fb001ccdbf008080fb0000
:104fe8001dcdbf000080fb0000804000800f5100f5
:104ff80002003a0006a2a8000100370006a2a90094
:105008000682a8001aeda8001b0da9006e00370043
:10501800d068800001022000010060000000e0006c
:105028004d003a00e1d12000914078001ccdbf002e
:1050380080cf500008003a00d068800001042000aa
:10504800010060000000e000030032000622a80012
:105058001aada8005c0037001ecdbf000081fb0020
:105068001ccdbf008080fb001dcdbf000080fb0071
:1050780000804000800f510005003a000642a80059
:105088000040eb001eedb7001a4da9004e00370096
:105098001ecdbf000081fb001ccdbf008080fb003f
:1050a8001dcdbf000080fb0000804000800f510034
:1050b80001003400ffff37001ecdbf00e14f500054
:1050c8000e003a0009c2bf0001c8b30001406000e9
:1050d8000004e00009003200106980000000e900c7
:1050e800106988001ecdbf000040e9001eedb70022
:1050f8001b2da8000642a800330037001069800065
:10510800104078000080fb001010880010698000b3
:105118000000e800106988001ecdbf000040e800cc
:105128001eedb700e1d12000914078001ccdbf00f2
:1051380080cf500024003a00d0688000010420008d
:10514800010060000000e0001f003a0000698000d4
:10515800106988001c003700170da800006980003e
:105168001069880017cdbf000080fb001010880070
:105178001a8da8001400370008c2bf0070406000f4
:105188000004e00010003200d068800001202000f8
:10519800010060000000e000030032000602a800e1
:1051a8001b2da90008003700d068800001042000ea
:1051b800010060000000e000020032001a2da80083
:1051c800010037001a0da8008620a9000500370045
:1051d8000642a800cca2a900cc62a800cc82a800f4
:1051e800ffff37000080fa004f0178004f00be0033
:1051f800004006003600f800809fbe00829fbe0077
:10520800849fbe00869fbe001000fa000080200028
:10521800400798000080200010079800c0802000f8
:10522800300798000040eb00004f7800c02b2000aa
:105238000064880035cbbf000004e0007500320030
:105248004140800000302000808060000020200065
:10525800808f50003e003a0010fd07000000e0007b
:10526800360032000000eb0000648800328ba90091
:1052780032aba90032cba90032eba90003c8bf00aa
:1052880030ebb70002c8bf0031ebb70060b32000b5
:105298004007980080598000000040008000780096
:1052a8004e00900001004000400798000ec8bf0063
:1052b8000080fb000000d10040479800f0802000eb
:1052c80030079800150037003e0090001040780025
:1052d80031ebb7003e0090000000e800300798006e
:1052e8003e0090001040780030ebb70081598000f4
:1052f8004e009000010878004e0090000080e80001
:10530800400798003e0090000000e8003007980031
:105318004e4090000040e900404798004e40900001
:105328000004e000e8ff3a00322ba800326ba90025
:105338000040eb0035ebb700360037000040eb00cb
:1053480035ebb700324ba800326ba90031003700ab
:105358004140800000302000808060000010200064
:10536800808f50002b003a0035cbbf00e84f50002b
:1053780024003a000040eb00004f78000040eb00aa
:10538800604f9800150037001e009000904078008c
:10539800514f98003e00900090407800414f98008f
:1053a800de4890004e48900080cf50000200320046
:1053b80010c0b300004f78001e0090000000e80005
:1053c800100798003e0090000000e80030079800a1
:1053d8006e4890000040e800604f98006e489000ca
:1053e800e74f5000e8ff36001e04e00002003200dc
:1053f800324ba80001003700320ba800326ba9001d
:1054080004003700324ba8000040eb000be8b7005f
:10541800326ba90022c2bf00624060000004e000b5
:10542800070032000200370030118000604f9800fa
:1054380022c2bf00624060000004e000faff3a00a8
:1054480011e1a90084e0a9000080fa004f03be0022
:105458004f02be004f01be004f00be003600f900eb
:1054680000400600809fbe000200fa000000eb002a
:1054780030088800111120009140780000c8b3005e
:1054880000c060000004e00001003a0011e1a8003b
:1054980035cbbf000004e0000c003a00c0802000bb
:1054a80030698800316980003011800080487800b8
:1054b800306980000000e8003069880035cbbf0003
:1054c8000040e80035ebb700170037000000eb009c
:1054d80030088800a0322000000f780035cbbf00cc
:1054e8000080fb009e0f50000a00310031698000e7
:1054f8003011800080487800306980000000e800a2
:105508003069880035cbbf000040e80035ebb700b4
:10551800050037003169800030118000804878002c
:105528000040eb0035ebb7008560a9000080fa0069
:105538004f00be0000400600809fbe000200fa0037
:10554800b1802000914078000ac8bf0080cf500089
:105558001a0031000bc8bf00e14f50000d003a009f
:1055680010802000406988000a00370040698000e8
:10557800104078000080fb002011880040698000fe
:105588000000e800406988000bc8bf000040e80040
:105598000be8b70023c2bf00624060000004e000cf
:1055a8000a003a00b1802000914078000ac8bf0084
:1055b80080cf5000edff3900040037000040eb00b9
:1055c8000be8b7000040eb000ae8b7008580a900a7
:1055d8000080fa004f00be00004006000c00fa00f0
:1055e8000080eb00400798000040eb00304798002f
:1055f80000cd2000000f780015cdbf0000c0e900e5
:10560800304798001d0037001e00780010407800d1
:105618008080fb004e009000010068004007980061
:105628001e0fe8000040eb002047980010003700ec
:105638004e009000610060000004e00006003200a7
:105648004e0090008000d10010002a000080680001
:1056580040079800030037004e0090000000d1007a
:10566800400798002e4090000040e800204798002e
:105678002e409000e74f5000edff36003e4090006e
:105688000040e900304798003e409000e14f40005c
:10569800ddff3a0000cd2000000f780015cdbf00d7
:1056a8000080fb001e004000008fe9001e0078000b
:1056b800104078000080fb00300798003e00900002
:1056c8004800dd00300798001e0fe8001e00780033
:1056d800104078008080fb003e00900001007000c0
:1056e800300798001e007800104078000080fb000a
:1056f800200798002e0090004800dd002007980041
:105708001e0fe9001e007800104078008080fb0022
:105718002e0090000100700020079800ce00900035
:105728003e009000808f500004003200ce009000b0
:105738002e009000808f500003003a0010002000d7
:1057480050079800020037000000eb00500798004f
:105758005e0090000080fa00000006000400fa00d5
:10576800204798002e409000f04f50000c00320067
:10577800ae40900000c2b30080cf50000800320055
:10578800ae40900000c3b30080cf50000400320048
:10579800ae40900000c4b30080cf500003003a0030
:1057a80020c2b300d1ecb700110037002e409000a2
:1057b800f14f50000c003200ae40900010c2b30010
:1057c80080cf500008003200ae40900010c3b300f4
:1057d80080cf500004003200ae40900010c4b300e7
:1057e80080cf500002003a0020c2b300d1ecb700cd
:1057f80050c0b30014edb7000040eb0015edb70042
:1058080011cd20009140780000c8b30000c070009e
:10581800d1ecb7002e409000d2ecb70000cd2000ac
:1058280031c0b300fdfb0700000f78001e007800b0
:10583800d3ecb70000f02f001e0060004800de0027
:10584800a066880053c2bf00644060000004e00006
:1058580004003a005342a800020037008e60a900f5
:105868009e60a8008ec0bf00684060000004e00091
:10587800faff3a00d0ccbf000080fb00a0128800dd
:1058880015cdbf000040e80015edb7000080fa0014
:10589800000006000400fa0010079800d2ccbf00f0
:1058a8006340400014edb7000040eb0015edb70071
:1058b80041d120009140780000cd2000d7fb07009f
:1058c800000f78001e007800804078001e009000cd
:1058d800014878001e0090000000e80010079800ba
:1058e80000f02f001e0060004800de0080407800b5
:1058f8001e0090000148780014cdbf0000c0e800e9
:1059080014edb70053c2bf00644060000004e0001b
:1059180004003a005342a800020037008e60a90034
:105928009e60a8008ec0bf00684060000004e000d0
:10593800faff3a00d0ccbf000080fb00a01288001c
:1059480015cdbf000040e80015edb7000080fa0053
:10595800000006003600f800809fbe00829fbe004f
:10596800849fbe00869fbe000400fa0000f4210058
:10597800000f7800c0658000610060000000e00052
:1059880018003200a06580000000e800a0658800cb
:10599800a1658000b0658000808f5000110036003e
:1059a8000000eb00a0658800ccc2bf000080fb00af
:1059b8004300de000004a200614060006140600016
:1059c80061406000614060004301dd00c12c20009f
:1059d8009140780070cfb30000c0600002407000b2
:1059e800cce2b70000668000610060000000e000c3
:1059f80018003200e06580000000e800e0658800db
:105a0800e1658000f0658000808f5000110036004d
:105a18000000eb00e0658800ccc2bf000080fb00fe
:105a28004500de000004a2006140600061406000a3
:105a380061406000614060004501dd00c12c20002c
:105a480091407800f0cdb30000c0600002407000c3
:105a5800cce2b70040668000610060000000e00012
:105a680018003200206680000000e80020668800e8
:105a78002166800030668000808f5000110036005b
:105a88000000eb0020668800ccc2bf000080fb004d
:105a98004400de000004a200614060006140600034
:105aa80061406000614060004401dd00c12c2000bd
:105ab80091407800f0ceb30000c060000240700052
:105ac800cce2b70070668000610060000000e00072
:105ad80045003200caccbf000080fb006a00b90054
:105ae800000f7800606680000000e80060668800ab
:105af800606680009e0f50002f003e00615a8000b3
:105b080090052000808f50000300360050002000d0
:105b18005f02070022003700615a8000f00420006d
:105b2800808f500003003600400020005802070014
:105b38001b003700615a800050042000808f5000fd
:105b4800030036003000200051020700140037001f
:105b5800615a8000b0032000808f50000300360097
:105b6800200020004a0207000d003700615a80001b
:105b780010032000808f5000030036001000200022
:105b88004302070006003700615a80001003200016
:105b9800808f500002003e000000eb003c0207002e
:105ba800506580004400de00674060000080fb0014
:105bb8006f0207003a003700616680003006200057
:105bc800808f5000030036000000eb0060668800fc
:105bd800330037000000eb00650207000000eb000f
:105be8002b0207002e003700506580004400de00bd
:105bf800674060000080fb005d020700615a80007a
:105c080090052000808f50000300360050002000cf
:105c18001f02070022003700615a8000f0042000ac
:105c2800808f500003003600400020001802070053
:105c38001b003700615a800050042000808f5000fc
:105c4800030036003000200011020700140037005e
:105c5800615a8000b0032000808f50000300360096
:105c6800200020000a0207000d003700615a80005a
:105c780010032000808f5000030036001000200021
:105c88000302070006003700615a80001003200055
:105c9800808f500002003e000000eb00fc0107006e
:105ca8008760a9000080fa004f03be004f02be00c3
:105cb8004f01be004f00be003600f900004006004c
:105cc800809fbe000000fa0015cdbf000004e00070
:105cd80029003200d1ccbf00e64f500009003a003d
:105ce80015cdbf00e84f500002003a00122da80061
:105cf80021003700124da8000040eb0015edb70059
:105d08001d003700d1ccbf00e34f500009003a0016
:105d180015cdbf00e84f500002003a00122da80030
:105d280015003700124da8000040eb0015edb70034
:105d380011003700d1ccbf00f04f50000b003a00e3
:105d480041d120009140780015cdbf0080cf500090
:105d580002003a00122da80007003700124da800d3
:105d68000040eb0015edb70003003700124da80006
:105d78000040eb0015edb70013e1a9008500a9006c
:105d88000080fa004f00be0000400600809fbe0061
:105d98000200fa0090688000620060000000e000e5
:105da80048003a000000eb0050088800311120003c
:105db8009140780000c8b30000c060000004e00013
:105dc80001003a0013e1a80015cdbf000004e0006f
:105dd8000e003a0000cd20006069880061698000eb
:105de800b012800080487800606980000000e800f8
:105df8006069880015cdbf000040e80015edb700c8
:105e08000040eb002aedb7003000370001cd20003c
:105e180091407800adccbf0080cf50000300320025
:105e2800d0ccbf000004e00020003a000000eb00e6
:105e38005008880061698000b012800080487800ae
:105e480015cdbf000040e80015edb70015cdbf0027
:105e5800e24f500007003a00606980001040780067
:105e6800f04f500003003a0060698000104078004d
:105e78002aedb70015cdbf00e74f500007003a00e4
:105e88002acdbf00f04f500004003a00606980003e
:105e9800104078006940400014edb7006069800048
:105ea8000000e800606988000800370013e1a900d5
:105eb800b0128000000f78000040eb0015edb7002d
:105ec80002003700b0128000000f78008e40a90051
:105ed8000080fa004f00be0000400600809fbe0010
:105ee8000200fa0051d120009140780014cdbf0083
:105ef80080cf50001800310015cdbf00e14f500091
:105f080002003a0010cd2000706988007069800096
:105f1800104078000080fb00a012880070698000a3
:105f28000000e8007069880015cdbf000040e80057
:105f380015edb7000000eb00000f780002003700f5
:105f4800000000001e0fe800400120009e0f100016
:105f5800fbff3600040037000040eb0015edb700ea
:105f68000040eb0014edb7008e60a9000080fa0035
:105f78004f00be00004006000200fa000040eb009f
:105f880043ecb700f0618000640060000000e000ae
:105f9800600032003e0ca9003e2ca9003e4ca9002e
:105fa800006280004300de006f4060000040e800af
:105fb8006f4060000080fb006f0060004301dd005f
:105fc8000162800070f82f000080600002007000fd
:105fd80000628800016280008007200080806000e5
:105fe80000022000808f500006003200016280000d
:105ff800800720008080600080032000808f500090
:106008001a003a000162800080072000808060004a
:1060180080032000808f500004003a00406ca800e4
:10602800408ca90040aca90040cca900f0618000d8
:10603800010c2000010060000000e00003003a00ad
:106048003ecca8003eeca90008003700f1618000b2
:10605800000c20008080600000042000808f500029
:1060680002003a003ecca9003eeca900f061800095
:10607800010c2000010060000000e00014003a005c
:10608800c0002000000f78000b2ca900c0002000e1
:106098009e0f100005003a0050c4b30042ecb70050
:1060a80000bc20002062880004003700d0c3b30081
:1060b80042ecb70020b82000206288003ecca9003e
:1060c8003eeca9000040eb0043ecb7000e0037009f
:1060d800f1618000000c2000808060000004200036
:1060e800808f500008003a0050c1b30042ecb7005e
:1060f800b0cc2800206288000040eb0043ecb700d9
:106108003ecca8003eeca900c02b200040628800cd
:1061180035003700406ca900408ca90040aca900ac
:1061280040cca900f1618000000c20008080600054
:1061380000042000808f50001e003a00c00020009c
:10614800000f78005160800000202000008060006f
:106158000000e000020032000b2ca900010037000b
:106168000b2ca800c00020009e0f100005003a006c
:1061780050c4b30042ecb70000bc20002062880085
:1061880004003700d0c3b30042ecb70020b82000a9
:10619800206288000040eb0043ecb7003e0ca900e9
:1061a8003e2ca9003e4ca9003ecca9003eeca9001b
:1061b8000b00370050c1b30042ecb700b0cc280048
:1061c800206288000040eb0043ecb7003e0ca900b9
:1061d8003e2ca9003e4ca9003ecca8003eeca900ec
:1061e800c02b2000406288002062800010407800a8
:1061f8000080fb00000f78001e007800a0118800c6
:1062080043ccbf000040e80043ecb70020628000a8
:106218000000e800206288000080fa000000060004
:10622800809fbe000200fa0031c42000914078002f
:1062380042ccbf0080cf50001100310020628000a6
:10624800104078000080fb00a011880043ccbf00fc
:106258000040e80043ecb700206280000000e8003e
:106268002062880031c420009140780042ccbf00f1
:1062780080cf500006003a003e0ca800040037000a
:106288000040eb0043ecb7000040eb0042ecb700e5
:1062980087e0a9000080fa004f00be000040060019
:1062a800809fbe00821f78000200fa00c02b2000e9
:1062b8004062880043ccbf000004e00004003a00bc
:1062c800e0c1200030628800e0c1b30042ecb700b2
:1062d80031c420009140780042ccbf0080cf5000ec
:1062e8003e003e0031628000b01180008048780096
:1062f8003062800010407800ed4f50000d003a00e9
:10630800f06180004400de00634060000040e80067
:10631800634060000080fb00630060004401dd0012
:10632800f1618000f0fc2f00008060000200700026
:10633800f0618800f0618000010320000100600026
:10634800f00f500011003a003062800010407800d1
:10635800ea4f50000d003a00f06180004400de0072
:10636800634060000040e800634060000080fb007c
:10637800630060004401dd00f1618000f0fc2f0043
:106388000080600002007000f061880043ccbf000c
:106398000004e00006003a003062800010407800f7
:1063a800f54f500002003a0080c0b30042ecb7003d
:1063b800306280000000e8003062880043ccbf00f3
:1063c8000040e80043ecb70032c2bf006140600003
:1063d8000004e000c3ff3a00020037004006200036
:1063e8004062880032c2bf00624060000004e000e2
:1063f8000800320003003700b0118000000f780059
:106408003222a90032c2bf00624060000004e000ee
:10641800f9ff3a0087c0a9000080fa004f01780010
:106428004f00be00004006000000fa00d822a90074
:10643800c862a900c882a900c8a2a900c902a90007
:10644800c922a900c942a900c962a900c982a90034
:10645800e0e2a800e0a2a800e0c2a8000080eb00eb
:10646800601988000080eb0050198800dc22a80021
:10647800100020003e0007000000eb0004000700a9
:10648800e842a800e862a9000080fa0000000600bf
:106498000200fa00004f78001e04e00006003a00ef
:1064a800cd02a800cd22a800cd42a800cd62a80048
:1064b800cd82a8002c00370010c0b3009e4f1000fa
:1064c80006003a00cd02a900cd22a800cd42a800be
:1064d800cd62a800cd82a8002300370020c0b300f9
:1064e8009e4f100006003a00cd02a900cd22a90057
:1064f800cd42a800cd62a800cd82a8001a003700be
:1065080030c0b3009e4f100006003a00cd02a9002b
:10651800cd22a900cd42a900cd62a800cd82a80055
:106528001100370040c0b3009e4f100006003a002b
:10653800cd02a900cd22a900cd42a900cd62a900b3
:10654800cd82a8000800370050c0b3009e4f10004d
:1065580005003a00cd02a900cd22a900cd42a9002c
:10656800cd62a900cd82a9000080fa0000000600d3
:106578000200fa00004f78001e04e00004003a0010
:10658800cc62a800cc82a800cca2a8001b003700cf
:1065980010c0b3009e4f100004003a00cc62a9005e
:1065a800cc82a800cca2a8001400370020c0b300f9
:1065b8009e4f100004003a00cc62a800cc82a900cb
:1065c800cca2a8000d00370030c0b3009e4f1000c9
:1065d80004003a00cc62a900cc82a900cca2a80091
:1065e8000600370040c0b3009e4f100003003a0079
:1065f800cc62a800cc82a800cca2a9000080fa0036
:10660800000006000000fa00800020000011880049
:10661800004422001011880022c2bf00f043b200db
:1066280001c4b3000140700022e2b700f019200055
:1066380040118800416a20009140780000ccb300e6
:1066480000c06000e041b300a4e6b700016d20007f
:106658009140780000ccb30000c060003040b30027
:10666800d0e6b7008560a9008580a9009560a800dc
:106678009580a800910a200091407800f0c8b300e6
:1066880000c0600001c6b30001407000a9e0b70077
:10669800a10a20009140780080cfb30000c06000bc
:1066a8006040b300aae0b70021e2a8002342a80096
:1066b8000000eb008008880094e0a80084e0a900ae
:1066c8000111200091407800f0ccb30000c06000b8
:1066d8000044a00010e1b7001021a900411180007a
:1066e80020022000808f500003003a00204e200036
:1066f800600888000600370041118000f01920006a
:10670800808f500002003a0080a9230060088800aa
:106718000080fa00000006000000fa008000200057
:1067280080128800004422009012880052c2bf00e4
:10673800f043b20001c4b3000140700052e2b70058
:1067480020022000c0128800316a200091407800a1
:1067580000ccb30000c060007040b300a3e6b700ef
:10676800616c20009140780000ccb30000c060004c
:10677800c041b300c6e6b7008e40a9008e60a900ec
:106788009e40a8009e60a800d10c2000914078008f
:1067980080cfb30000c060005040b300cde0b70028
:1067a800d10c200091407800f0c8b30000c0600010
:1067b80001c5b30001407000cde0b7005342a80006
:1067c80051e2a8000000eb00900888009500a8009e
:1067d8008500a9002111200091407800f0ccb30079
:1067e80000c060000044a00012e1b7001221a90017
:1067f800204e200070088800120da800122da90054
:1068080010c0b300adecb7000080fa00000006002d
:106818000000fa0080002000801188000044220057
:106828009011880032c2bf00f043b20001c4b30027
:106838000140700032e2b700f0192000c011880052
:10684800616a20009140780000ccb30000c060006d
:10685800a040b300a6e6b700116d20009140780073
:1068680000ccb30000c060005040b300d1e6b700d0
:1068780087c0a90087e0a90097c0a80097e0a800f2
:10688800310b200091407800f0c8b30000c06000d0
:1068980001c5b30001407000b3e0b70031e2a800c1
:0c68a8003342a8000080fa000000060047
:020000040000fa
:1068b4004a0c00008600000000000000160d0000d5
:1068c4000e00000000000000300d00000400000075
:1068d4000000000000080000800300000000000029
:1068e400240d00000600000000000000d00c000091
:1068f40046000000000000002a0d00000600000011
:10690400000000003c0d0000020000000000000038
:10691400800b0000ca00000000000000340d0000dd
:1069240004000000000000003e0d00000200000012
:1069340000000000380d000004000000000000000a
:04694400000000004f
:020000040000fa
:106948000000fa00f042a800f062a800f442a90092
:10695800f462a9000000eb00301088000000eb0092
:1069680040108800f01f20002010880080002000c0
:10697800501088000000eb00601088009620a800e6
:106988009600a800c10a20009140780080cfb3008b
:1069980000c060000024a000ace0b700c10a2000dd
:1069a80091407800f0c8b30000c0600001c4b30093
:1069b80001407000ace0b70006c2a8000702a800ba
:1069c80007e2a8000080fa00000006000000fa00b4
:1069d8000000eb00f00888009760a8008760a90015
:1069e800e111200091407800f0ccb30000c06000b5
:1069f8000044a0001ee1b7001e21a9001fe1a80065
:106a0800800c2000d00888000080fa0000000600f2
:106a18000000fa0045c7bf0081cfb3000140600005
:106a280045e7b7004567a90043c7bf000047b20064
:106a3800f04f5000fcff3a0042c7bf000042b200ce
:106a48000004e000fcff32000080fa0000000600ad
:00000001FF
